{"abi":[{"type":"constructor","inputs":[{"name":"systemRegistry","type":"address","internalType":"contract ISystemRegistry"},{"name":"_vaultAsset","type":"address","internalType":"address"}],"stateMutability":"nonpayable"},{"type":"function","name":"DEAD_ADDRESS","inputs":[],"outputs":[{"name":"","type":"address","internalType":"address"}],"stateMutability":"view"},{"type":"function","name":"DOMAIN_SEPARATOR","inputs":[],"outputs":[{"name":"","type":"bytes32","internalType":"bytes32"}],"stateMutability":"view"},{"type":"function","name":"FEE_DIVISOR","inputs":[],"outputs":[{"name":"","type":"uint256","internalType":"uint256"}],"stateMutability":"view"},{"type":"function","name":"ONE","inputs":[],"outputs":[{"name":"","type":"uint256","internalType":"uint256"}],"stateMutability":"view"},{"type":"function","name":"WETH_INIT_DEPOSIT","inputs":[],"outputs":[{"name":"","type":"uint256","internalType":"uint256"}],"stateMutability":"view"},{"type":"function","name":"accessController","inputs":[],"outputs":[{"name":"","type":"address","internalType":"contract IAccessController"}],"stateMutability":"view"},{"type":"function","name":"addDestinations","inputs":[{"name":"destinations","type":"address[]","internalType":"address[]"}],"outputs":[],"stateMutability":"nonpayable"},{"type":"function","name":"allowance","inputs":[{"name":"owner","type":"address","internalType":"address"},{"name":"spender","type":"address","internalType":"address"}],"outputs":[{"name":"","type":"uint256","internalType":"uint256"}],"stateMutability":"view"},{"type":"function","name":"approve","inputs":[{"name":"spender","type":"address","internalType":"address"},{"name":"value","type":"uint256","internalType":"uint256"}],"outputs":[{"name":"","type":"bool","internalType":"bool"}],"stateMutability":"nonpayable"},{"type":"function","name":"asset","inputs":[],"outputs":[{"name":"","type":"address","internalType":"address"}],"stateMutability":"view"},{"type":"function","name":"autoPoolStrategy","inputs":[],"outputs":[{"name":"","type":"address","internalType":"contract IAutopoolStrategy"}],"stateMutability":"view"},{"type":"function","name":"balanceOf","inputs":[{"name":"account","type":"address","internalType":"address"}],"outputs":[{"name":"","type":"uint256","internalType":"uint256"}],"stateMutability":"view"},{"type":"function","name":"balanceOfActual","inputs":[{"name":"account","type":"address","internalType":"address"}],"outputs":[{"name":"","type":"uint256","internalType":"uint256"}],"stateMutability":"view"},{"type":"function","name":"convertToAssets","inputs":[{"name":"shares","type":"uint256","internalType":"uint256"}],"outputs":[{"name":"assets","type":"uint256","internalType":"uint256"}],"stateMutability":"view"},{"type":"function","name":"convertToAssets","inputs":[{"name":"shares","type":"uint256","internalType":"uint256"},{"name":"totalAssetsForPurpose","type":"uint256","internalType":"uint256"},{"name":"supply","type":"uint256","internalType":"uint256"},{"name":"rounding","type":"uint8","internalType":"enum Math.Rounding"}],"outputs":[{"name":"assets","type":"uint256","internalType":"uint256"}],"stateMutability":"view"},{"type":"function","name":"convertToShares","inputs":[{"name":"assets","type":"uint256","internalType":"uint256"},{"name":"totalAssetsForPurpose","type":"uint256","internalType":"uint256"},{"name":"supply","type":"uint256","internalType":"uint256"},{"name":"rounding","type":"uint8","internalType":"enum Math.Rounding"}],"outputs":[{"name":"shares","type":"uint256","internalType":"uint256"}],"stateMutability":"view"},{"type":"function","name":"convertToShares","inputs":[{"name":"assets","type":"uint256","internalType":"uint256"}],"outputs":[{"name":"shares","type":"uint256","internalType":"uint256"}],"stateMutability":"view"},{"type":"function","name":"decimals","inputs":[],"outputs":[{"name":"","type":"uint8","internalType":"uint8"}],"stateMutability":"view"},{"type":"function","name":"deposit","inputs":[{"name":"assets","type":"uint256","internalType":"uint256"},{"name":"receiver","type":"address","internalType":"address"}],"outputs":[{"name":"shares","type":"uint256","internalType":"uint256"}],"stateMutability":"nonpayable"},{"type":"function","name":"factory","inputs":[],"outputs":[{"name":"","type":"address","internalType":"address"}],"stateMutability":"view"},{"type":"function","name":"flashRebalance","inputs":[{"name":"receiver","type":"address","internalType":"contract IERC3156FlashBorrower"},{"name":"rebalanceParams","type":"tuple","internalType":"struct IStrategy.RebalanceParams","components":[{"name":"destinationIn","type":"address","internalType":"address"},{"name":"tokenIn","type":"address","internalType":"address"},{"name":"amountIn","type":"uint256","internalType":"uint256"},{"name":"destinationOut","type":"address","internalType":"address"},{"name":"tokenOut","type":"address","internalType":"address"},{"name":"amountOut","type":"uint256","internalType":"uint256"}]},{"name":"data","type":"bytes","internalType":"bytes"}],"outputs":[],"stateMutability":"nonpayable"},{"type":"function","name":"getAssetBreakdown","inputs":[],"outputs":[{"name":"","type":"tuple","internalType":"struct IAutopool.AssetBreakdown","components":[{"name":"totalIdle","type":"uint256","internalType":"uint256"},{"name":"totalDebt","type":"uint256","internalType":"uint256"},{"name":"totalDebtMin","type":"uint256","internalType":"uint256"},{"name":"totalDebtMax","type":"uint256","internalType":"uint256"}]}],"stateMutability":"view"},{"type":"function","name":"getDebtReportingQueue","inputs":[],"outputs":[{"name":"","type":"address[]","internalType":"address[]"}],"stateMutability":"view"},{"type":"function","name":"getDestinationInfo","inputs":[{"name":"destVault","type":"address","internalType":"address"}],"outputs":[{"name":"","type":"tuple","internalType":"struct AutopoolDebt.DestinationInfo","components":[{"name":"cachedDebtValue","type":"uint256","internalType":"uint256"},{"name":"cachedMinDebtValue","type":"uint256","internalType":"uint256"},{"name":"cachedMaxDebtValue","type":"uint256","internalType":"uint256"},{"name":"lastReport","type":"uint256","internalType":"uint256"},{"name":"ownedShares","type":"uint256","internalType":"uint256"}]}],"stateMutability":"view"},{"type":"function","name":"getDestinations","inputs":[],"outputs":[{"name":"","type":"address[]","internalType":"address[]"}],"stateMutability":"view"},{"type":"function","name":"getFeeSettings","inputs":[],"outputs":[{"name":"","type":"tuple","internalType":"struct IAutopool.AutopoolFeeSettings","components":[{"name":"feeSink","type":"address","internalType":"address"},{"name":"totalAssetsHighMark","type":"uint256","internalType":"uint256"},{"name":"totalAssetsHighMarkTimestamp","type":"uint256","internalType":"uint256"},{"name":"lastPeriodicFeeTake","type":"uint256","internalType":"uint256"},{"name":"periodicFeeSink","type":"address","internalType":"address"},{"name":"periodicFeeBps","type":"uint256","internalType":"uint256"},{"name":"streamingFeeBps","type":"uint256","internalType":"uint256"},{"name":"navPerShareLastFeeMark","type":"uint256","internalType":"uint256"},{"name":"navPerShareLastFeeMarkTimestamp","type":"uint256","internalType":"uint256"},{"name":"rebalanceFeeHighWaterMarkEnabled","type":"bool","internalType":"bool"}]}],"stateMutability":"view"},{"type":"function","name":"getPastRewarders","inputs":[],"outputs":[{"name":"","type":"address[]","internalType":"address[]"}],"stateMutability":"view"},{"type":"function","name":"getProfitUnlockSettings","inputs":[],"outputs":[{"name":"","type":"tuple","internalType":"struct IAutopool.ProfitUnlockSettings","components":[{"name":"unlockPeriodInSeconds","type":"uint48","internalType":"uint48"},{"name":"fullProfitUnlockTime","type":"uint48","internalType":"uint48"},{"name":"lastProfitUnlockTime","type":"uint48","internalType":"uint48"},{"name":"profitUnlockRate","type":"uint256","internalType":"uint256"}]}],"stateMutability":"view"},{"type":"function","name":"getRemovalQueue","inputs":[],"outputs":[{"name":"","type":"address[]","internalType":"address[]"}],"stateMutability":"view"},{"type":"function","name":"getSystemRegistry","inputs":[],"outputs":[{"name":"","type":"address","internalType":"address"}],"stateMutability":"view"},{"type":"function","name":"getWithdrawalQueue","inputs":[],"outputs":[{"name":"","type":"address[]","internalType":"address[]"}],"stateMutability":"view"},{"type":"function","name":"initialize","inputs":[{"name":"strategy","type":"address","internalType":"address"},{"name":"symbolSuffix","type":"string","internalType":"string"},{"name":"descPrefix","type":"string","internalType":"string"},{"name":"","type":"bytes","internalType":"bytes"}],"outputs":[],"stateMutability":"nonpayable"},{"type":"function","name":"isDestinationQueuedForRemoval","inputs":[{"name":"dest","type":"address","internalType":"address"}],"outputs":[{"name":"","type":"bool","internalType":"bool"}],"stateMutability":"view"},{"type":"function","name":"isDestinationRegistered","inputs":[{"name":"destination","type":"address","internalType":"address"}],"outputs":[{"name":"","type":"bool","internalType":"bool"}],"stateMutability":"view"},{"type":"function","name":"isPastRewarder","inputs":[{"name":"_pastRewarder","type":"address","internalType":"address"}],"outputs":[{"name":"","type":"bool","internalType":"bool"}],"stateMutability":"view"},{"type":"function","name":"isShutdown","inputs":[],"outputs":[{"name":"","type":"bool","internalType":"bool"}],"stateMutability":"view"},{"type":"function","name":"maxDeposit","inputs":[{"name":"wallet","type":"address","internalType":"address"}],"outputs":[{"name":"maxAssets","type":"uint256","internalType":"uint256"}],"stateMutability":"nonpayable"},{"type":"function","name":"maxMint","inputs":[{"name":"wallet","type":"address","internalType":"address"}],"outputs":[{"name":"maxShares","type":"uint256","internalType":"uint256"}],"stateMutability":"nonpayable"},{"type":"function","name":"maxRedeem","inputs":[{"name":"owner","type":"address","internalType":"address"}],"outputs":[{"name":"maxShares","type":"uint256","internalType":"uint256"}],"stateMutability":"nonpayable"},{"type":"function","name":"maxWithdraw","inputs":[{"name":"owner","type":"address","internalType":"address"}],"outputs":[{"name":"maxAssets","type":"uint256","internalType":"uint256"}],"stateMutability":"nonpayable"},{"type":"function","name":"mint","inputs":[{"name":"shares","type":"uint256","internalType":"uint256"},{"name":"receiver","type":"address","internalType":"address"}],"outputs":[{"name":"assets","type":"uint256","internalType":"uint256"}],"stateMutability":"nonpayable"},{"type":"function","name":"name","inputs":[],"outputs":[{"name":"","type":"string","internalType":"string"}],"stateMutability":"view"},{"type":"function","name":"nonces","inputs":[{"name":"owner","type":"address","internalType":"address"}],"outputs":[{"name":"","type":"uint256","internalType":"uint256"}],"stateMutability":"view"},{"type":"function","name":"oldestDebtReporting","inputs":[],"outputs":[{"name":"","type":"uint256","internalType":"uint256"}],"stateMutability":"view"},{"type":"function","name":"pause","inputs":[],"outputs":[],"stateMutability":"nonpayable"},{"type":"function","name":"paused","inputs":[],"outputs":[{"name":"","type":"bool","internalType":"bool"}],"stateMutability":"nonpayable"},{"type":"function","name":"permit","inputs":[{"name":"owner","type":"address","internalType":"address"},{"name":"spender","type":"address","internalType":"address"},{"name":"value","type":"uint256","internalType":"uint256"},{"name":"deadline","type":"uint256","internalType":"uint256"},{"name":"v","type":"uint8","internalType":"uint8"},{"name":"r","type":"bytes32","internalType":"bytes32"},{"name":"s","type":"bytes32","internalType":"bytes32"}],"outputs":[],"stateMutability":"nonpayable"},{"type":"function","name":"previewDeposit","inputs":[{"name":"assets","type":"uint256","internalType":"uint256"}],"outputs":[{"name":"shares","type":"uint256","internalType":"uint256"}],"stateMutability":"nonpayable"},{"type":"function","name":"previewMint","inputs":[{"name":"shares","type":"uint256","internalType":"uint256"}],"outputs":[{"name":"assets","type":"uint256","internalType":"uint256"}],"stateMutability":"nonpayable"},{"type":"function","name":"previewRedeem","inputs":[{"name":"shares","type":"uint256","internalType":"uint256"}],"outputs":[{"name":"assets","type":"uint256","internalType":"uint256"}],"stateMutability":"nonpayable"},{"type":"function","name":"previewWithdraw","inputs":[{"name":"assets","type":"uint256","internalType":"uint256"}],"outputs":[{"name":"shares","type":"uint256","internalType":"uint256"}],"stateMutability":"nonpayable"},{"type":"function","name":"recover","inputs":[{"name":"tokens","type":"address[]","internalType":"address[]"},{"name":"amounts","type":"uint256[]","internalType":"uint256[]"},{"name":"destinations","type":"address[]","internalType":"address[]"}],"outputs":[],"stateMutability":"nonpayable"},{"type":"function","name":"redeem","inputs":[{"name":"shares","type":"uint256","internalType":"uint256"},{"name":"receiver","type":"address","internalType":"address"},{"name":"owner","type":"address","internalType":"address"}],"outputs":[{"name":"assets","type":"uint256","internalType":"uint256"}],"stateMutability":"nonpayable"},{"type":"function","name":"removeDestinations","inputs":[{"name":"destinations","type":"address[]","internalType":"address[]"}],"outputs":[],"stateMutability":"nonpayable"},{"type":"function","name":"rewarder","inputs":[],"outputs":[{"name":"","type":"address","internalType":"contract IMainRewarder"}],"stateMutability":"view"},{"type":"function","name":"setFeeSink","inputs":[{"name":"newFeeSink","type":"address","internalType":"address"}],"outputs":[],"stateMutability":"nonpayable"},{"type":"function","name":"setPeriodicFeeBps","inputs":[{"name":"fee","type":"uint256","internalType":"uint256"}],"outputs":[],"stateMutability":"nonpayable"},{"type":"function","name":"setPeriodicFeeSink","inputs":[{"name":"newPeriodicFeeSink","type":"address","internalType":"address"}],"outputs":[],"stateMutability":"nonpayable"},{"type":"function","name":"setProfitUnlockPeriod","inputs":[{"name":"newUnlockPeriodSeconds","type":"uint48","internalType":"uint48"}],"outputs":[],"stateMutability":"nonpayable"},{"type":"function","name":"setRebalanceFeeHighWaterMarkEnabled","inputs":[{"name":"enabled","type":"bool","internalType":"bool"}],"outputs":[],"stateMutability":"nonpayable"},{"type":"function","name":"setRewarder","inputs":[{"name":"_rewarder","type":"address","internalType":"address"}],"outputs":[],"stateMutability":"nonpayable"},{"type":"function","name":"setStreamingFeeBps","inputs":[{"name":"fee","type":"uint256","internalType":"uint256"}],"outputs":[],"stateMutability":"nonpayable"},{"type":"function","name":"setSymbolAndDescAfterShutdown","inputs":[{"name":"newSymbol","type":"string","internalType":"string"},{"name":"newName","type":"string","internalType":"string"}],"outputs":[],"stateMutability":"nonpayable"},{"type":"function","name":"shutdown","inputs":[{"name":"reason","type":"uint8","internalType":"enum IAutopool.VaultShutdownStatus"}],"outputs":[],"stateMutability":"nonpayable"},{"type":"function","name":"shutdownStatus","inputs":[],"outputs":[{"name":"","type":"uint8","internalType":"enum IAutopool.VaultShutdownStatus"}],"stateMutability":"view"},{"type":"function","name":"symbol","inputs":[],"outputs":[{"name":"","type":"string","internalType":"string"}],"stateMutability":"view"},{"type":"function","name":"totalAssets","inputs":[],"outputs":[{"name":"","type":"uint256","internalType":"uint256"}],"stateMutability":"view"},{"type":"function","name":"totalAssets","inputs":[{"name":"purpose","type":"uint8","internalType":"enum IAutopool.TotalAssetPurpose"}],"outputs":[{"name":"","type":"uint256","internalType":"uint256"}],"stateMutability":"view"},{"type":"function","name":"totalSupply","inputs":[],"outputs":[{"name":"shares","type":"uint256","internalType":"uint256"}],"stateMutability":"view"},{"type":"function","name":"transfer","inputs":[{"name":"to","type":"address","internalType":"address"},{"name":"value","type":"uint256","internalType":"uint256"}],"outputs":[{"name":"","type":"bool","internalType":"bool"}],"stateMutability":"nonpayable"},{"type":"function","name":"transferFrom","inputs":[{"name":"from","type":"address","internalType":"address"},{"name":"to","type":"address","internalType":"address"},{"name":"value","type":"uint256","internalType":"uint256"}],"outputs":[{"name":"","type":"bool","internalType":"bool"}],"stateMutability":"nonpayable"},{"type":"function","name":"unlockedShares","inputs":[],"outputs":[{"name":"shares","type":"uint256","internalType":"uint256"}],"stateMutability":"view"},{"type":"function","name":"unpause","inputs":[],"outputs":[],"stateMutability":"nonpayable"},{"type":"function","name":"updateDebtReporting","inputs":[{"name":"numToProcess","type":"uint256","internalType":"uint256"}],"outputs":[],"stateMutability":"nonpayable"},{"type":"function","name":"vaultType","inputs":[],"outputs":[{"name":"","type":"bytes32","internalType":"bytes32"}],"stateMutability":"view"},{"type":"function","name":"withdraw","inputs":[{"name":"assets","type":"uint256","internalType":"uint256"},{"name":"receiver","type":"address","internalType":"address"},{"name":"owner","type":"address","internalType":"address"}],"outputs":[{"name":"shares","type":"uint256","internalType":"uint256"}],"stateMutability":"nonpayable"},{"type":"event","name":"AddedToRemovalQueue","inputs":[{"name":"destination","type":"address","indexed":false,"internalType":"address"}],"anonymous":false},{"type":"event","name":"Approval","inputs":[{"name":"owner","type":"address","indexed":true,"internalType":"address"},{"name":"spender","type":"address","indexed":true,"internalType":"address"},{"name":"value","type":"uint256","indexed":false,"internalType":"uint256"}],"anonymous":false},{"type":"event","name":"Deposit","inputs":[{"name":"sender","type":"address","indexed":true,"internalType":"address"},{"name":"owner","type":"address","indexed":true,"internalType":"address"},{"name":"assets","type":"uint256","indexed":false,"internalType":"uint256"},{"name":"shares","type":"uint256","indexed":false,"internalType":"uint256"}],"anonymous":false},{"type":"event","name":"DestinationDebtReporting","inputs":[{"name":"destination","type":"address","indexed":false,"internalType":"address"},{"name":"debtValue","type":"uint256","indexed":false,"internalType":"uint256"},{"name":"claimed","type":"uint256","indexed":false,"internalType":"uint256"},{"name":"claimGasUsed","type":"uint256","indexed":false,"internalType":"uint256"}],"anonymous":false},{"type":"event","name":"DestinationVaultAdded","inputs":[{"name":"destination","type":"address","indexed":false,"internalType":"address"}],"anonymous":false},{"type":"event","name":"DestinationVaultRemoved","inputs":[{"name":"destination","type":"address","indexed":false,"internalType":"address"}],"anonymous":false},{"type":"event","name":"FeeCollected","inputs":[{"name":"fees","type":"uint256","indexed":false,"internalType":"uint256"},{"name":"feeSink","type":"address","indexed":false,"internalType":"address"},{"name":"mintedShares","type":"uint256","indexed":false,"internalType":"uint256"},{"name":"profit","type":"uint256","indexed":false,"internalType":"uint256"},{"name":"idle","type":"uint256","indexed":false,"internalType":"uint256"},{"name":"debt","type":"uint256","indexed":false,"internalType":"uint256"}],"anonymous":false},{"type":"event","name":"Initialized","inputs":[{"name":"version","type":"uint8","indexed":false,"internalType":"uint8"}],"anonymous":false},{"type":"event","name":"Nav","inputs":[{"name":"idle","type":"uint256","indexed":false,"internalType":"uint256"},{"name":"debt","type":"uint256","indexed":false,"internalType":"uint256"},{"name":"totalSupply","type":"uint256","indexed":false,"internalType":"uint256"}],"anonymous":false},{"type":"event","name":"Paused","inputs":[{"name":"account","type":"address","indexed":false,"internalType":"address"}],"anonymous":false},{"type":"event","name":"PeriodicFeeCollected","inputs":[{"name":"fees","type":"uint256","indexed":false,"internalType":"uint256"},{"name":"feeSink","type":"address","indexed":false,"internalType":"address"},{"name":"mintedShares","type":"uint256","indexed":false,"internalType":"uint256"}],"anonymous":false},{"type":"event","name":"RemovedFromRemovalQueue","inputs":[{"name":"destination","type":"address","indexed":false,"internalType":"address"}],"anonymous":false},{"type":"event","name":"RewarderSet","inputs":[{"name":"newRewarder","type":"address","indexed":false,"internalType":"address"},{"name":"oldRewarder","type":"address","indexed":false,"internalType":"address"}],"anonymous":false},{"type":"event","name":"Shutdown","inputs":[{"name":"reason","type":"uint8","indexed":false,"internalType":"enum IAutopool.VaultShutdownStatus"}],"anonymous":false},{"type":"event","name":"SymbolAndDescSet","inputs":[{"name":"symbol","type":"string","indexed":false,"internalType":"string"},{"name":"desc","type":"string","indexed":false,"internalType":"string"}],"anonymous":false},{"type":"event","name":"TokensPulled","inputs":[{"name":"tokens","type":"address[]","indexed":false,"internalType":"address[]"},{"name":"amounts","type":"uint256[]","indexed":false,"internalType":"uint256[]"},{"name":"destinations","type":"address[]","indexed":false,"internalType":"address[]"}],"anonymous":false},{"type":"event","name":"TokensRecovered","inputs":[{"name":"tokens","type":"address[]","indexed":false,"internalType":"address[]"},{"name":"amounts","type":"uint256[]","indexed":false,"internalType":"uint256[]"},{"name":"destinations","type":"address[]","indexed":false,"internalType":"address[]"}],"anonymous":false},{"type":"event","name":"Transfer","inputs":[{"name":"from","type":"address","indexed":true,"internalType":"address"},{"name":"to","type":"address","indexed":true,"internalType":"address"},{"name":"value","type":"uint256","indexed":false,"internalType":"uint256"}],"anonymous":false},{"type":"event","name":"Unpaused","inputs":[{"name":"account","type":"address","indexed":false,"internalType":"address"}],"anonymous":false},{"type":"event","name":"Withdraw","inputs":[{"name":"sender","type":"address","indexed":true,"internalType":"address"},{"name":"receiver","type":"address","indexed":true,"internalType":"address"},{"name":"owner","type":"address","indexed":true,"internalType":"address"},{"name":"assets","type":"uint256","indexed":false,"internalType":"uint256"},{"name":"shares","type":"uint256","indexed":false,"internalType":"uint256"}],"anonymous":false},{"type":"event","name":"WithdrawalQueueSet","inputs":[{"name":"destinations","type":"address[]","indexed":false,"internalType":"address[]"}],"anonymous":false},{"type":"error","name":"AccessDenied","inputs":[]},{"type":"error","name":"DepositFailed","inputs":[]},{"type":"error","name":"ERC4626DepositExceedsMax","inputs":[{"name":"assets","type":"uint256","internalType":"uint256"},{"name":"maxDeposit","type":"uint256","internalType":"uint256"}]},{"type":"error","name":"ERC4626ExceededMaxRedeem","inputs":[{"name":"owner","type":"address","internalType":"address"},{"name":"shares","type":"uint256","internalType":"uint256"},{"name":"max","type":"uint256","internalType":"uint256"}]},{"type":"error","name":"ERC4626ExceededMaxWithdraw","inputs":[{"name":"owner","type":"address","internalType":"address"},{"name":"assets","type":"uint256","internalType":"uint256"},{"name":"max","type":"uint256","internalType":"uint256"}]},{"type":"error","name":"ERC4626MintExceedsMax","inputs":[{"name":"shares","type":"uint256","internalType":"uint256"},{"name":"maxMint","type":"uint256","internalType":"uint256"}]},{"type":"error","name":"InsufficientFundsInDestinations","inputs":[{"name":"deficit","type":"uint256","internalType":"uint256"}]},{"type":"error","name":"InvalidDestination","inputs":[{"name":"destination","type":"address","internalType":"address"}]},{"type":"error","name":"InvalidDestinationVault","inputs":[]},{"type":"error","name":"InvalidParam","inputs":[{"name":"paramName","type":"string","internalType":"string"}]},{"type":"error","name":"InvalidParams","inputs":[]},{"type":"error","name":"InvalidShutdownStatus","inputs":[{"name":"status","type":"uint8","internalType":"enum IAutopool.VaultShutdownStatus"}]},{"type":"error","name":"InvalidUser","inputs":[]},{"type":"error","name":"IsNotPaused","inputs":[]},{"type":"error","name":"IsPaused","inputs":[]},{"type":"error","name":"ItemExists","inputs":[]},{"type":"error","name":"NavChanged","inputs":[{"name":"oldNav","type":"uint256","internalType":"uint256"},{"name":"newNav","type":"uint256","internalType":"uint256"}]},{"type":"error","name":"NavDecreased","inputs":[{"name":"oldNav","type":"uint256","internalType":"uint256"},{"name":"newNav","type":"uint256","internalType":"uint256"}]},{"type":"error","name":"NavOpsInProgress","inputs":[]},{"type":"error","name":"RebalanceDestinationsMatch","inputs":[{"name":"destinationVault","type":"address","internalType":"address"}]},{"type":"error","name":"RebalanceFailed","inputs":[{"name":"message","type":"string","internalType":"string"}]},{"type":"error","name":"ReentrancyGuardReentrantCall","inputs":[]},{"type":"error","name":"RegistryItemMissing","inputs":[{"name":"item","type":"string","internalType":"string"}]},{"type":"error","name":"RewarderAlreadySet","inputs":[]},{"type":"error","name":"UndefinedAddress","inputs":[]},{"type":"error","name":"ValueSharesMismatch","inputs":[{"name":"value","type":"uint256","internalType":"uint256"},{"name":"shares","type":"uint256","internalType":"uint256"}]},{"type":"error","name":"VaultShutdown","inputs":[]},{"type":"error","name":"WithdrawShareCalcInvalid","inputs":[{"name":"currentShares","type":"uint256","internalType":"uint256"},{"name":"cachedShares","type":"uint256","internalType":"uint256"}]},{"type":"error","name":"WithdrawalFailed","inputs":[]},{"type":"error","name":"WithdrawalIncomplete","inputs":[]},{"type":"error","name":"ZeroAddress","inputs":[{"name":"paramName","type":"string","internalType":"string"}]}],"bytecode":{"object":"0x6101806040527fde6f3096d4f66344ff788320cd544f72ff6f5662e94f10e931a2dc34104866b760e0523480156200003657600080fd5b506040516200630d3803806200630d833981016040819052620000599162000588565b81826001600160a01b031663bc43cbaf6040518163ffffffff1660e01b8152600401602060405180830381865afa15801562000099573d6000803e3d6000fd5b505050506040513d601f19601f82011682018060405250810190620000bf9190620005c7565b6001600160a01b038116620000e757604051630cbe126f60e11b815260040160405180910390fd5b6001600160a01b031660805260408051808201909152600e81526d73797374656d526567697374727960901b6020808301919091526200013291839162003b6962000480821b17901c565b6000816001600160a01b031663bc43cbaf6040518163ffffffff1660e01b8152600401602060405180830381865afa15801562000173573d6000803e3d6000fd5b505050506040513d601f19601f82011682018060405250810190620001999190620005c7565b90506001600160a01b038116620001eb57604051636fc852e160e01b815260206004820152601060248201526f30b1b1b2b9b9a1b7b73a3937b63632b960811b60448201526064015b60405180910390fd5b6000826001600160a01b031663c3d0cbfb6040518163ffffffff1660e01b8152600401602060405180830381865afa1580156200022c573d6000803e3d6000fd5b505050506040513d601f19601f82011682018060405250810190620002529190620005c7565b90506001600160a01b0381166200029e57604051636fc852e160e01b815260206004820152600e60248201526d73797374656d536563757269747960901b6044820152606401620001e2565b6001600160a01b0391821660a0521660c052506001805560408051808201909152600e81526d73797374656d526567697374727960901b602080830191909152620002f491849162003b6962000480821b17901c565b816001600160a01b0316610120816001600160a01b0316815250506000816001600160a01b031663313ce5676040518163ffffffff1660e01b8152600401602060405180830381865afa15801562000350573d6000803e3d6000fd5b505050506040513d601f19601f82011682018060405250810190620003769190620005ee565b90506200038581600a62000728565b6101005260ff8116610160526001600160a01b038216610140819052604080516395d89b4160e01b815290516395d89b41916004808201926000929091908290030181865afa158015620003dd573d6000803e3d6000fd5b505050506040513d6000823e601f3d908101601f1916820160405262000407919081019062000775565b6040516020016200041991906200082d565b6040516020818303038152906040526007908162000438919062000900565b5060076040516020016200044d9190620009cc565b604051602081830303815290604052600690816200046c919062000900565b5062000477620004b0565b50505062000a8d565b6001600160a01b038216620004ac578060405163eac0d38960e01b8152600401620001e2919062000a58565b5050565b600054610100900460ff16156200051a5760405162461bcd60e51b815260206004820152602760248201527f496e697469616c697a61626c653a20636f6e747261637420697320696e697469604482015266616c697a696e6760c81b6064820152608401620001e2565b60005460ff90811610156200056d576000805460ff191660ff9081179091556040519081527f7f26b83ff96e1f2b6a682f133852f6798a09c465da95921460cefb38474024989060200160405180910390a15b565b6001600160a01b03811681146200058557600080fd5b50565b600080604083850312156200059c57600080fd5b8251620005a9816200056f565b6020840151909250620005bc816200056f565b809150509250929050565b600060208284031215620005da57600080fd5b8151620005e7816200056f565b9392505050565b6000602082840312156200060157600080fd5b815160ff81168114620005e757600080fd5b634e487b7160e01b600052601160045260246000fd5b600181815b808511156200066a5781600019048211156200064e576200064e62000613565b808516156200065c57918102915b93841c93908002906200062e565b509250929050565b600082620006835750600162000722565b81620006925750600062000722565b8160018114620006ab5760028114620006b657620006d6565b600191505062000722565b60ff841115620006ca57620006ca62000613565b50506001821b62000722565b5060208310610133831016604e8410600b8410161715620006fb575081810a62000722565b62000707838362000629565b80600019048211156200071e576200071e62000613565b0290505b92915050565b6000620005e760ff84168362000672565b634e487b7160e01b600052604160045260246000fd5b60005b838110156200076c57818101518382015260200162000752565b50506000910152565b6000602082840312156200078857600080fd5b81516001600160401b0380821115620007a057600080fd5b818401915084601f830112620007b557600080fd5b815181811115620007ca57620007ca62000739565b604051601f8201601f19908116603f01168101908382118183101715620007f557620007f562000739565b816040528281528760208487010111156200080f57600080fd5b620008228360208301602088016200074f565b979650505050505050565b67185d5d1bd41bdbdb60c21b815260008251620008528160088501602087016200074f565b6754656d706c61746560c01b6008939091019283015250601001919050565b600181811c908216806200088657607f821691505b602082108103620008a757634e487b7160e01b600052602260045260246000fd5b50919050565b601f821115620008fb57600081815260208120601f850160051c81016020861015620008d65750805b601f850160051c820191505b81811015620008f757828155600101620008e2565b5050505b505050565b81516001600160401b038111156200091c576200091c62000739565b62000934816200092d845462000871565b84620008ad565b602080601f8311600181146200096c5760008415620009535750858301515b600019600386901b1c1916600185901b178555620008f7565b600085815260208120601f198616915b828110156200099d578886015182559484019460019091019084016200097c565b5085821015620009bc5787850151600019600388901b60f8161c191681555b5050505050600190811b01905550565b6000808354620009dc8162000871565b60018281168015620009f7576001811462000a0d5762000a3e565b60ff198416875282151583028701945062000a3e565b8760005260208060002060005b8581101562000a355781548a82015290840190820162000a1a565b50505082870194505b505065102a37b5b2b760d11b835250506006019392505050565b602081526000825180602084015262000a798160408501602087016200074f565b601f01601f19169190910160400192915050565b60805160a05160c05160e0516101005161012051610140516101605161576b62000ba260003960006105e60152600081816106e2015281816140df015281816141fa0152614438015260008181610c0001528181611b4c01528181611dba01528181612043015281816136e901528181613a630152613fa50152600081816109bc0152613ede0152600061074c01526000611eba01526000818161177d01526125080152600081816109770152818161140601528181611ab501528181611f75015281816121ce01528181612411015281816126690152818161286601528181612abd01528181612f08015281816130f30152818161341f0152818161353a015281816136520152613c49015261576b6000f3fe608060405234801561001057600080fd5b50600436106104545760003560e01c80638456cb5911610241578063c63d75b61161013b578063da62e064116100c3578063e50d8b2611610087578063e50d8b2614610b2c578063e9f45bec14610bd8578063ef8b30f714610beb578063f12baf5c14610bfe578063fc46802114610c2457600080fd5b8063da62e06414610aa7578063dc47c23a14610aba578063dcc3e06e14610acd578063dd62ed3e14610ae0578063e225df1b14610b1957600080fd5b8063d505accf1161010a578063d505accf14610a3d578063d54ffc0b14610a50578063d905777e14610a79578063d9a0e97a14610a8c578063d9ac22d114610a9457600080fd5b8063c63d75b6146109f1578063c6e6f59214610a04578063c7575dac14610a17578063ce96cb7714610a2a57600080fd5b8063b3d7f6b9116101c9578063bc43cbaf1161018d578063bc43cbaf14610972578063bef893e814610999578063bf86d690146109ac578063c2ee3a08146109b7578063c45a0155146109de57600080fd5b8063b3d7f6b91461091e578063b460af9414610931578063b639a0c114610944578063ba0876521461094c578063ba689a121461095f57600080fd5b80639a0dbc02116102105780639a0dbc02146108c95780639e93ad8e146108dc578063a9059cbb146108e5578063a90a227a146108f8578063ae35f4321461090b57600080fd5b80638456cb591461089357806392804c6c1461089b57806394bf804d146108ae57806395d89b41146108c157600080fd5b80633f4ba83a116103525780635c975abb116102da57806370a082311161029e57806370a082311461082957806377f748d01461083c5780637ecebe001461084f578063804a4219146108785780638063e2b61461088b57600080fd5b80635c975abb146107ad57806366c2072e146107b55780636e553f65146107c85780636f6f3821146107db5780636fcb5f3d146107ee57600080fd5b80634cdad506116103215780634cdad5061461076e5780634e6fd6c41461078157806353589b741461078a578063544407e2146107925780635ba536bc146107a557600080fd5b80633f4ba83a14610719578063402d267d1461072157806348b80c5d146107345780634ac032be1461074757600080fd5b806323b872dd116103e05780632ec746bf116103a45780632ec746bf146105b4578063313ce567146105df5780633644e5151461061057806338d52e0f146106e05780633a6462e41461070657600080fd5b806323b872dd1461054c578063267eb9ed1461055f578063295b001f146105745780632b38400e146105875780632e4c96971461059c57600080fd5b80630a28a477116104275780630a28a477146104bf5780630e73ecef146104d257806318160ddd146104e757806319004142146104ef57806319e650341461054457600080fd5b806301e1d1141461045957806306fdde031461047457806307a2d13a14610489578063095ea7b31461049c575b600080fd5b610461610c2e565b6040519081526020015b60405180910390f35b61047c610cb1565b60405161046b919061472a565b61046161049736600461473d565b610d43565b6104af6104aa36600461476b565b610d68565b604051901515815260200161046b565b6104616104cd36600461473d565b610dfd565b6104da610ec9565b60405161046b9190614797565b610461610f45565b6105026104fd3660046147e4565b610f87565b60405161046b9190600060a082019050825182526020830151602083015260408301516040830152606083015160608301526080830151608083015292915050565b6104da611011565b6104af61055a366004614801565b61101d565b61057261056d36600461496d565b6110c1565b005b610572610582366004614a28565b6113cd565b61058f61153c565b60405161046b9190614a45565b600d54610100900460ff1660405161046b9190614b0a565b6026546105c7906001600160a01b031681565b6040516001600160a01b03909116815260200161046b565b60405160ff7f000000000000000000000000000000000000000000000000000000000000000016815260200161046b565b6040805180820182526007815266546f6b656d616b60c81b6020918201528151808301835260018152603160f81b9082015281517f8b73c3c69bb8fe3d512ecc4cf759cc79239f7b179b0ffacaa9a75d522b39400f818301527f23507ec2a6c39fbe11564ea15b41b88713abf0a51468497aca3adc4f90e202d1818401527fc89efdaa54c0f20c7adf612882df0950f5a951637e0307cdcb4c672f298b8bc660608201524660808201523060a0808301919091528351808303909101815260c09091019092528151910120610461565b7f00000000000000000000000000000000000000000000000000000000000000006105c7565b6105726107143660046147e4565b611619565b610572611766565b61046161072f3660046147e4565b61189d565b610461610742366004614b1d565b6118b2565b6104617f000000000000000000000000000000000000000000000000000000000000000081565b61046161077c36600461473d565b6118d6565b6105c761dead81565b6104616119da565b6105726107a036600461473d565b611a74565b6104da611e99565b6104af611ea5565b6105726107c3366004614ba9565b611f3c565b6104616107d6366004614bea565b6120a0565b6105726107e9366004614c28565b612195565b6107f66122d3565b60405161046b91908151815260208083015190820152604080830151908201526060918201519181019190915260800190565b6104616108373660046147e4565b61232d565b61046161084a366004614b1d565b6123bb565b61046161085d3660046147e4565b6001600160a01b031660009081526005602052604090205490565b610572610886366004614ba9565b6123d8565b6104da6124e5565b6105726124f1565b6105726108a936600461473d565b612628565b6104616108bc366004614bea565b612783565b61047c61281e565b6105726108d7366004614c45565b61282d565b61046161271081565b6104af6108f336600461476b565b6129ef565b610461610906366004614a28565b612a47565b6105726109193660046147e4565b612a84565b61046161092c36600461473d565b612b8c565b61046161093f366004614ca8565b612bd8565b6104da612cfb565b61046161095a366004614ca8565b612d36565b6104af61096d3660046147e4565b612ec2565b6105c77f000000000000000000000000000000000000000000000000000000000000000081565b6105726109a7366004614cea565b612ecf565b600d5460ff166104af565b6104617f000000000000000000000000000000000000000000000000000000000000000081565b6024546105c7906001600160a01b031681565b6104616109ff3660046147e4565b613017565b610461610a1236600461473d565b6130a2565b610572610a2536600461473d565b6130ba565b610461610a383660046147e4565b6131e6565b610572610a4b366004614d83565b61331a565b610461610a5e3660046147e4565b6001600160a01b031660009081526002602052604090205490565b610461610a873660046147e4565b61338f565b6104616133a4565b610572610aa2366004614dfa565b6133e6565b610572610ab53660046147e4565b613501565b610572610ac8366004614e63565b613609565b6025546105c7906001600160a01b031681565b610461610aee366004614f33565b6001600160a01b03918216600090815260036020908152604080832093909416825291909152205490565b6104af610b273660046147e4565b613b3f565b610b99604080516080810182526000808252602082018190529181018290526060810191909152506040805160808101825260125465ffffffffffff80821683526601000000000000820481166020840152600160601b9091041691810191909152601354606082015290565b60408051825165ffffffffffff90811682526020808501518216908301528383015116918101919091526060918201519181019190915260800161046b565b6104af610be63660046147e4565b613b4c565b610461610bf936600461473d565b613b59565b7f00000000000000000000000000000000000000000000000000000000000000006105c7565b610461620186a081565b60405163105fbc1760e11b815260009073__$e59ba208770f0bb7170124c90a265d49b2$__906320bf782e90610c6b90601e908590600401614f61565b602060405180830381865af4158015610c88573d6000803e3d6000fd5b505050506040513d601f19601f82011682018060405250810190610cac9190614f7e565b905090565b606060068054610cc090614f97565b80601f0160208091040260200160405190810160405280929190818152602001828054610cec90614f97565b8015610d395780601f10610d0e57610100808354040283529160200191610d39565b820191906000526020600020905b815481529060010190602001808311610d1c57829003601f168201915b5050505050905090565b6000610d6282610d536000612a47565b610d5b610f45565b60006118b2565b92915050565b604051630847f5ab60e21b8152600260048201526001600160a01b03831660248201526044810182905260009073__$3d92f1d3bc6bfb356016331e2a35621c53$__9063211fd6ac906064015b602060405180830381865af4158015610dd2573d6000803e3d6000fd5b505050506040513d601f19601f82011682018060405250810190610df69190614fdb565b9392505050565b600073__$01f473357be68eab904149e2679f02fe97$__63443c0bff600184610e266002613b96565b6040805160248082018a905282518083039091018152604490910182526020810180516001600160e01b0316630a28a47760e01b17905290516001600160e01b031960e087901b168152610e899493929190601e90600e90600c90600401614ff8565b6040805180830381865af4158015610ea5573d6000803e3d6000fd5b505050506040513d601f19601f82011682018060405250810190610df6919061503e565b604051631f93128960e01b8152600e600482015260609073__$c43d8492d3bc3054ea19c4e2abee7bce9e$__90631f931289906024015b600060405180830381865af4158015610f1d573d6000803e3d6000fd5b505050506040513d6000823e601f3d908101601f19168201604052610cac919081019061506d565b604051633a68b11560e11b8152600260048201526012602482015260009073__$e59ba208770f0bb7170124c90a265d49b2$__906374d1622a90604401610c6b565b610fb96040518060a0016040528060008152602001600081526020016000815260200160008152602001600081525090565b506001600160a01b03166000908152600c6020908152604091829020825160a0810184528154815260018201549281019290925260028101549282019290925260038201546060820152600490910154608082015290565b6060610cac6022613bd6565b6000611027613be3565b60405163de8e7abd60e01b8152600260048201526001600160a01b038086166024830152841660448201526064810183905273__$3d92f1d3bc6bfb356016331e2a35621c53$__9063de8e7abd90608401602060405180830381865af4158015611095573d6000803e3d6000fd5b505050506040513d601f19601f820116820180604052508101906110b99190614fdb565b949350505050565b600054610100900460ff16158080156110e15750600054600160ff909116105b806110fb5750303b1580156110fb575060005460ff166001145b6111635760405162461bcd60e51b815260206004820152602e60248201527f496e697469616c697a61626c653a20636f6e747261637420697320616c72656160448201526d191e481a5b9a5d1a585b1a5e995960921b60648201526084015b60405180910390fd5b6000805460ff191660011790558015611186576000805461ff0019166101001790555b6111b4846040518060400160405280600c81526020016b0e6f2dac4ded8a6eaccccd2f60a31b815250613c0b565b6111e0836040518060400160405280600a8152602001690c8cae6c6a0e4caccd2f60b31b815250613c0b565b61121f856040518060400160405280601781526020017f6175746f506f6f6c537472617465677941646472657373000000000000000000815250613b69565b602480546001600160a01b03191633179055600761123d8582615169565b50600661124a8482615169565b50604051636ac5b38360e01b81526014600482015273__$669f91a11f10a24610ade7c17c5bed3751$__90636ac5b3839060240160006040518083038186803b15801561129657600080fd5b505af41580156112aa573d6000803e3d6000fd5b5050602680546001600160a01b0319166001600160a01b03891617905550600090506112db620186a061dead6120a0565b9050620186a0811461130c576040516309469bc160e21b8152620186a060048201526024810182905260440161115a565b6040516325f3715360e01b8152601260048201526002602482015262015180604482015273__$669f91a11f10a24610ade7c17c5bed3751$__906325f371539060640160006040518083038186803b15801561136757600080fd5b505af415801561137b573d6000803e3d6000fd5b505050505080156113c6576000805461ff0019169055604051600181527f7f26b83ff96e1f2b6a682f133852f6798a09c465da95921460cefb38474024989060200160405180910390a15b5050505050565b604051632474521560e21b81527f29f066ba98b1de62c9c969c781ec5d316c4e96752461c65aa1a1f8b71b818955906001600160a01b037f000000000000000000000000000000000000000000000000000000000000000016906391d148549061143d9084903390600401615228565b602060405180830381865afa15801561145a573d6000803e3d6000fd5b505050506040513d601f19601f8201168201806040525081019061147e9190614fdb565b61149b57604051634ca8886760e01b815260040160405180910390fd5b60008260028111156114af576114af614ad6565b036114cf5781604051632b35653160e21b815260040161115a9190614b0a565b600d8054600160ff1982168117835584929161ffff1916176101008360028111156114fc576114fc614ad6565b02179055507fc85216bd9ad96664f2f809d1ac5ee9868b286dd7374145090ee1b669a8f39cc9826040516115309190614b0a565b60405180910390a15050565b6115a660405180610140016040528060006001600160a01b0316815260200160008152602001600081526020016000815260200160006001600160a01b03168152602001600081526020016000815260200160008152602001600081526020016000151581525090565b5060408051610140810182526014546001600160a01b0390811682526015546020830152601654928201929092526017546060820152601854909116608082015260195460a0820152601a5460c0820152601b5460e0820152601c54610100820152601d5460ff16151561012082015290565b6024546001600160a01b0316331480159061165b57506116597ffde2f69a846a71295e563d91ade82dc70e9eda278403d1aece24d0ded949403a33613c2f565b155b1561167957604051634ca8886760e01b815260040160405180910390fd5b6116a381604051806040016040528060088152602001673932bbb0b93232b960c11b815250613b69565b6025546001600160a01b03166116ba602283613c9d565b806116d65750816001600160a01b0316816001600160a01b0316145b156116f457604051633e04f87160e01b815260040160405180910390fd5b6001600160a01b038116156117105761170e602282613cbf565b505b602580546001600160a01b0319166001600160a01b038481169182179092556040805191825291831660208201527fbc338ad631c3856fd03e151bfc793b4f06d8b3ab462a4e631b5faf33cc4d86ba9101611530565b604051632474521560e21b81526001600160a01b037f000000000000000000000000000000000000000000000000000000000000000016906391d14854906117d4907f62c67cb852e451f36ab720db75ef4514bb68a3897d1a5c81c9a83b7c98000a73903390600401615228565b602060405180830381865afa1580156117f1573d6000803e3d6000fd5b505050506040513d601f19601f820116820180604052508101906118159190614fdb565b61183257604051634ca8886760e01b815260040160405180910390fd5b60005462010000900460ff1661185b5760405163bc871ce560e01b815260040160405180910390fd5b6000805462ff0000191690556040513381527f5db9ee0a495bf2e6ff9c91a7834c1ba4fdd244a5e8aa4e537bd38aeae4b073aa906020015b60405180910390a1565b6000610d62826118ad6001613b96565b613cd4565b600082156118cb576118c685858585613ceb565b6118cd565b845b95945050505050565b600080803033036118fd576118eb6002613b96565b91506118fa8483610d5b610f45565b90505b73__$01f473357be68eab904149e2679f02fe97$__63443c0bff60008385306001600160a01b0316634cdad5068a60405160240161193d91815260200190565b60408051808303601f1901815291815260208201805160e094851b6001600160e01b03909116179052519187901b6001600160e01b0319168252611991959493925090601e90600e90600c90600401614ff8565b6040805180830381865af41580156119ad573d6000803e3d6000fd5b505050506040513d601f19601f820116820180604052508101906119d1919061503e565b50949350505050565b60405163342a534b60e21b815260106004820152600090819073__$c43d8492d3bc3054ea19c4e2abee7bce9e$__9063d0a94d2c90602401602060405180830381865af4158015611a2f573d6000803e3d6000fd5b505050506040513d601f19601f82011682018060405250810190611a53919061523f565b6001600160a01b03166000908152600c602052604090206003015492915050565b611a7c613d46565b604051632474521560e21b81527fcc8d84e7812292bf7d6520663883418777cc25c70d0afb177cf436a4b193f43f906001600160a01b037f000000000000000000000000000000000000000000000000000000000000000016906391d1485490611aec9084903390600401615228565b602060405180830381865afa158015611b09573d6000803e3d6000fd5b505050506040513d601f19601f82011682018060405250810190611b2d9190614fdb565b611b4a57604051634ca8886760e01b815260040160405180910390fd5b7f00000000000000000000000000000000000000000000000000000000000000006001600160a01b031663c3d0cbfb6040518163ffffffff1660e01b8152600401602060405180830381865afa158015611ba8573d6000803e3d6000fd5b505050506040513d601f19601f82011682018060405250810190611bcc919061523f565b6001600160a01b03166378b3218e6040518163ffffffff1660e01b8152600401600060405180830381600087803b158015611c0657600080fd5b505af1158015611c1a573d6000803e3d6000fd5b5050601e54601f546040516319198b0b60e21b815260106004820152600c602482015260448101879052919350915060009073__$01f473357be68eab904149e2679f02fe97$__906364662c2c9060640161012060405180830381865af4158015611c89573d6000803e3d6000fd5b505050506040513d601f19601f82011682018060405250810190611cad919061525c565b90506000816040015184611cc191906152f4565b905060008260800151836060015185611cda91906152f4565b611ce49190615307565b601e839055601f81905560c084015160a08501516020549293509091611d0a91906152f4565b611d149190615307565b60205561010083015160e0840151602154611d2f91906152f4565b611d399190615307565b6021556000611d5c611d4b83856152f4565b611d5587896152f4565b6001613d70565b9050611d71611d6b83856152f4565b82613ec7565b60408051848152602081018490529081018290527ffde591d4268ec544cdd14ce6872b792705c3a22041dda226551134062d3e05e89060600160405180910390a15050505050507f00000000000000000000000000000000000000000000000000000000000000006001600160a01b031663c3d0cbfb6040518163ffffffff1660e01b8152600401602060405180830381865afa158015611e16573d6000803e3d6000fd5b505050506040513d601f19601f82011682018060405250810190611e3a919061523f565b6001600160a01b031663565f36526040518163ffffffff1660e01b8152600401600060405180830381600087803b158015611e7457600080fd5b505af1158015611e88573d6000803e3d6000fd5b5050505050611e9660018055565b50565b6060610cac6008613bd6565b6000805462010000900460ff1680610cac57507f00000000000000000000000000000000000000000000000000000000000000006001600160a01b0316637691c4ac6040518163ffffffff1660e01b81526004016020604051808303816000875af1158015611f18573d6000803e3d6000fd5b505050506040513d601f19601f82011682018060405250810190610cac9190614fdb565b604051632474521560e21b81527f34a7520d3d78202e2ebf2e8fd1438c03a5b2d8f76e9ed166769da91b4084c8a9906001600160a01b037f000000000000000000000000000000000000000000000000000000000000000016906391d1485490611fac9084903390600401615228565b602060405180830381865afa158015611fc9573d6000803e3d6000fd5b505050506040513d601f19601f82011682018060405250810190611fed9190614fdb565b61200a57604051634ca8886760e01b815260040160405180910390fd5b60405163a4a419c760e01b815273__$e0bd54428bd72fc5961a05622100a8ec84$__9063a4a419c79061206b90600a90600890889088907f000000000000000000000000000000000000000000000000000000000000000090600401615363565b60006040518083038186803b15801561208357600080fd5b505af4158015612097573d6000803e3d6000fd5b50505050505050565b60006120aa613d46565b60016000806120b883613f59565b915091506120c4613fa1565b6120ec866040518060400160405280600681526020016561737365747360d01b8152506140a5565b60006120f86001613b96565b905060006121068783613cd4565b905080881115612133576040516328e53d1d60e21b8152600481018990526024810182905260440161115a565b6121478883612140610f45565b60006123bb565b9550612171866040518060400160405280600681526020016573686172657360d01b8152506140a5565b61217c8887896140c8565b5050612189828285614153565b505050610d6260018055565b604051632474521560e21b81527f0cf879d4130d1406f9ac47c9bad2570cc4a127a954af798da98488d730523ec4906001600160a01b037f000000000000000000000000000000000000000000000000000000000000000016906391d14854906122059084903390600401615228565b602060405180830381865afa158015612222573d6000803e3d6000fd5b505050506040513d601f19601f820116820180604052508101906122469190614fdb565b61226357604051634ca8886760e01b815260040160405180910390fd5b604051632b3f818160e11b815260146004820152821515602482015273__$669f91a11f10a24610ade7c17c5bed3751$__9063567f0302906044015b60006040518083038186803b1580156122b757600080fd5b505af41580156122cb573d6000803e3d6000fd5b505050505050565b6122fe6040518060800160405280600081526020016000815260200160008152602001600081525090565b5060408051608081018252601e548152601f546020808301919091525491810191909152602154606082015290565b60405163560ec12360e01b815260026004820152601260248201526001600160a01b038216604482015260009073__$e59ba208770f0bb7170124c90a265d49b2$__9063560ec123906064015b602060405180830381865af4158015612397573d6000803e3d6000fd5b505050506040513d601f19601f82011682018060405250810190610d629190614f7e565b60008415806123c8575082155b6118cb576118c685848685613ceb565b604051632474521560e21b81527f34a7520d3d78202e2ebf2e8fd1438c03a5b2d8f76e9ed166769da91b4084c8a9906001600160a01b037f000000000000000000000000000000000000000000000000000000000000000016906391d14854906124489084903390600401615228565b602060405180830381865afa158015612465573d6000803e3d6000fd5b505050506040513d601f19601f820116820180604052508101906124899190614fdb565b6124a657604051634ca8886760e01b815260040160405180910390fd5b604051636469eb8d60e01b815273__$e0bd54428bd72fc5961a05622100a8ec84$__90636469eb8d9061206b90600a906008908890889060040161539d565b6060610cac600a613bd6565b604051632474521560e21b81526001600160a01b037f000000000000000000000000000000000000000000000000000000000000000016906391d148549061255f907f62c67cb852e451f36ab720db75ef4514bb68a3897d1a5c81c9a83b7c98000a73903390600401615228565b602060405180830381865afa15801561257c573d6000803e3d6000fd5b505050506040513d601f19601f820116820180604052508101906125a09190614fdb565b6125bd57604051634ca8886760e01b815260040160405180910390fd5b60005462010000900460ff16156125e757604051631309a56360e01b815260040160405180910390fd5b6000805462ff00001916620100001790556040513381527f62e78cea01bee320cd4e420270b5ea74000d11b0c9f74754ebdbfc544b05a25890602001611893565b612630613d46565b604051632474521560e21b81527f0cf879d4130d1406f9ac47c9bad2570cc4a127a954af798da98488d730523ec4906001600160a01b037f000000000000000000000000000000000000000000000000000000000000000016906391d14854906126a09084903390600401615228565b602060405180830381865afa1580156126bd573d6000803e3d6000fd5b505050506040513d601f19601f820116820180604052508101906126e19190614fdb565b6126fe57604051634ca8886760e01b815260040160405180910390fd5b73__$669f91a11f10a24610ade7c17c5bed3751$__630dc78a776014846127236119da565b60105460405160e086901b6001600160e01b0319168152600481019490945260248401929092526044830152606482015260840160006040518083038186803b15801561276f57600080fd5b505af4158015611e88573d6000803e3d6000fd5b600061278d613d46565b600160008061279b83613f59565b915091506127a7613fa1565b6127b085613017565b8611156127e357856127c186613017565b604051631091ffef60e01b81526004810192909252602482015260440161115a565b60006127ef6001613b96565b905061280587826127fe610f45565b60016118b2565b94506128128588886140c8565b50612189828285614153565b606060078054610cc090614f97565b604051632474521560e21b81527f29f066ba98b1de62c9c969c781ec5d316c4e96752461c65aa1a1f8b71b818955906001600160a01b037f000000000000000000000000000000000000000000000000000000000000000016906391d148549061289d9084903390600401615228565b602060405180830381865afa1580156128ba573d6000803e3d6000fd5b505050506040513d601f19601f820116820180604052508101906128de9190614fdb565b6128fb57604051634ca8886760e01b815260040160405180910390fd5b61292683604051806040016040528060098152602001681b995dd4de5b589bdb60ba1b815250613c0b565b61294f82604051806040016040528060078152602001666e65774e616d6560c81b815250613c0b565b6000600d54610100900460ff16600281111561296d5761296d614ad6565b0361299757600d54604051632b35653160e21b815261115a91610100900460ff1690600401614b0a565b7fefef805604888de94f7456186b17b52a9aa89d786fe446638de8de83f20c5d1d83836040516129c89291906153bd565b60405180910390a160076129dc8482615169565b5060066129e98382615169565b50505050565b60006129f9613be3565b604051634d439f7f60e01b8152600260048201526001600160a01b03841660248201526044810183905273__$3d92f1d3bc6bfb356016331e2a35621c53$__90634d439f7f90606401610db5565b60405163105fbc1760e11b815260009073__$e59ba208770f0bb7170124c90a265d49b2$__906320bf782e9061237a90601e908690600401614f61565b604051632474521560e21b81527f9f359c53986b24240c7294fef1abdaf22ae1e4cff9fc850868d5141eb3a4a24f906001600160a01b037f000000000000000000000000000000000000000000000000000000000000000016906391d1485490612af49084903390600401615228565b602060405180830381865afa158015612b11573d6000803e3d6000fd5b505050506040513d601f19601f82011682018060405250810190612b359190614fdb565b612b5257604051634ca8886760e01b815260040160405180910390fd5b60405163a6b8b9b960e01b815273__$669f91a11f10a24610ade7c17c5bed3751$__9063a6b8b9b99061229f906014908690600401615228565b600080612b996001613b96565b9050612ba883826127fe610f45565b9150612bd2826040518060400160405280600681526020016561737365747360d01b8152506140a5565b50919050565b6000612be2613d46565b612bea613be3565b6002600080612bf883613f59565b91509150612c04613fa1565b612c2c876040518060400160405280600681526020016561737365747360d01b8152506140a5565b60008073__$01f473357be68eab904149e2679f02fe97$__636472d2118a612c546002613b96565b6040516001600160e01b031960e085901b16815260048101929092526024820152601e6044820152600e6064820152600c608482015260a401606060405180830381865af4158015612caa573d6000803e3d6000fd5b505050506040513d601f19601f82011682018060405250810190612cce91906153e2565b5091509150809550612ce28287898b6141c5565b5050612cef828285614153565b505050610df660018055565b604051631f93128960e01b81526010600482015260609073__$c43d8492d3bc3054ea19c4e2abee7bce9e$__90631f93128990602401610f00565b6000612d40613d46565b612d48613be3565b6002600080612d5683613f59565b91509150612d62613fa1565b6000612d6e6002613b96565b90506000612d7c8783614282565b905080891115612db857604051632e52afbb60e21b81526001600160a01b0388166004820152602481018a90526044810182905260640161115a565b6000612dc78a84610d5b610f45565b9050612df9816040518060400160405280600e81526020016d706f737369626c6541737365747360901b8152506140a5565b604051632ddb261560e21b81526004810182905260248101849052601e6044820152600e6064820152600c6084820152600090819073__$01f473357be68eab904149e2679f02fe97$__9063b76c98549060a401606060405180830381865af4158015612e6a573d6000803e3d6000fd5b505050506040513d601f19601f82011682018060405250810190612e8e91906153e2565b50915091508198508b811115612ea657612ea6615410565b612eb2898d8c8e6141c5565b5050505050612cef828285614153565b6000610d62600883613c9d565b604051632474521560e21b81527f712b73613835f525c3c675d2245c737ba70afbd0b97264479c97d623f2141594906001600160a01b037f000000000000000000000000000000000000000000000000000000000000000016906391d1485490612f3f9084903390600401615228565b602060405180830381865afa158015612f5c573d6000803e3d6000fd5b505050506040513d601f19601f82011682018060405250810190612f809190614fdb565b612f9d57604051634ca8886760e01b815260040160405180910390fd5b6040516317df127d60e31b815273__$e59ba208770f0bb7170124c90a265d49b2$__9063bef893e890612fde908a908a908a908a908a908a90600401615426565b60006040518083038186803b158015612ff657600080fd5b505af415801561300a573d6000803e3d6000fd5b5050505050505050505050565b600073__$e59ba208770f0bb7170124c90a265d49b2$__630c46897a600260126010600c87613044611ea5565b600d5460405160e089901b6001600160e01b031916815260048101979097526024870195909552604486019390935260648501919091526001600160a01b03166084840152151560a483015260ff16151560c482015260e40161237a565b6000610d62826130b26000612a47565b612140610f45565b604051632474521560e21b81527f9f359c53986b24240c7294fef1abdaf22ae1e4cff9fc850868d5141eb3a4a24f906001600160a01b037f000000000000000000000000000000000000000000000000000000000000000016906391d148549061312a9084903390600401615228565b602060405180830381865afa158015613147573d6000803e3d6000fd5b505050506040513d601f19601f8201168201806040525081019061316b9190614fdb565b61318857604051634ca8886760e01b815260040160405180910390fd5b73__$669f91a11f10a24610ade7c17c5bed3751$__63c397d6b56014846131ad6119da565b60105460405160e086901b6001600160e01b0319168152600481019490945260248401929092526044830152606482015260840161229f565b6000806131f28361232d565b905060006132006002613b96565b905061320a611ea5565b80613213575081155b8061321c575080155b1561322b575060009392505050565b600061323a8383610d5b610f45565b905073__$01f473357be68eab904149e2679f02fe97$__63443c0bff60018385306001600160a01b0316630a28a4778760405160240161327c91815260200190565b60408051808303601f1901815291815260208201805160e094851b6001600160e01b03909116179052519187901b6001600160e01b03191682526132d0959493925090601e90600e90600c90600401614ff8565b6040805180830381865af41580156132ec573d6000803e3d6000fd5b505050506040513d601f19601f82011682018060405250810190613310919061503e565b5095945050505050565b604051633a35807d60e21b8152600260048201526001600160a01b03808916602483015287166044820152606481018690526084810185905260ff841660a482015260c4810183905260e4810182905273__$3d92f1d3bc6bfb356016331e2a35621c53$__9063e8d601f49061010401612fde565b6000610d628261339f6002613b96565b614282565b6040516325ae9ed160e01b8152601260048201526002602482015260009073__$669f91a11f10a24610ade7c17c5bed3751$__906325ae9ed190604401610c6b565b604051632474521560e21b81527f29f066ba98b1de62c9c969c781ec5d316c4e96752461c65aa1a1f8b71b818955906001600160a01b037f000000000000000000000000000000000000000000000000000000000000000016906391d14854906134569084903390600401615228565b602060405180830381865afa158015613473573d6000803e3d6000fd5b505050506040513d601f19601f820116820180604052508101906134979190614fdb565b6134b457604051634ca8886760e01b815260040160405180910390fd5b6040516325f3715360e01b8152601260048201526002602482015265ffffffffffff8316604482015273__$669f91a11f10a24610ade7c17c5bed3751$__906325f371539060640161229f565b604051632474521560e21b81527f0cf879d4130d1406f9ac47c9bad2570cc4a127a954af798da98488d730523ec4906001600160a01b037f000000000000000000000000000000000000000000000000000000000000000016906391d14854906135719084903390600401615228565b602060405180830381865afa15801561358e573d6000803e3d6000fd5b505050506040513d601f19601f820116820180604052508101906135b29190614fdb565b6135cf57604051634ca8886760e01b815260040160405180910390fd5b604051636df2d99560e11b815273__$669f91a11f10a24610ade7c17c5bed3751$__9063dbe5b32a9061229f906014908690600401615228565b613611613d46565b613619613be3565b604051632474521560e21b81527f0ca87275d169c8ebebebf4aab9c6c710c7681b39422556e90b16a44c68ee4e46906001600160a01b037f000000000000000000000000000000000000000000000000000000000000000016906391d14854906136899084903390600401615228565b602060405180830381865afa1580156136a6573d6000803e3d6000fd5b505050506040513d601f19601f820116820180604052508101906136ca9190614fdb565b6136e757604051634ca8886760e01b815260040160405180910390fd5b7f00000000000000000000000000000000000000000000000000000000000000006001600160a01b031663c3d0cbfb6040518163ffffffff1660e01b8152600401602060405180830381865afa158015613745573d6000803e3d6000fd5b505050506040513d601f19601f82011682018060405250810190613769919061523f565b6001600160a01b03166378b3218e6040518163ffffffff1660e01b8152600401600060405180830381600087803b1580156137a357600080fd5b505af11580156137b7573d6000803e3d6000fd5b5050505060006137c9868686866142ad565b601e54601f549192509060006137df82846152f4565b905083602001518460400151846137f691906152f4565b6138009190615307565b9250836080015184606001518361381791906152f4565b6138219190615307565b601e849055601f81905560c085015160a0860151602054929450909161384791906152f4565b6138519190615307565b60205561010084015160e085015160215461386c91906152f4565b6138769190615307565b602155600061389061388884866152f4565b836000613d70565b60608a015160405163155c27bd60e01b81526001600160a01b03909116600482015260006024820152600e604482015260106064820152600a608482015290915073__$e0bd54428bd72fc5961a05622100a8ec84$__9063155c27bd9060a40160006040518083038186803b15801561390857600080fd5b505af415801561391c573d6000803e3d6000fd5b50508a5160405163155c27bd60e01b81526001600160a01b03909116600482015260016024820152600e604482015260106064820152600a608482015273__$e0bd54428bd72fc5961a05622100a8ec84$__925063155c27bd915060a40160006040518083038186803b15801561399257600080fd5b505af41580156139a6573d6000803e3d6000fd5b50506026546040516360784ecb60e11b81526001600160a01b03909116925063c0f09d9691506139da908c906004016154d5565b600060405180830381600087803b1580156139f457600080fd5b505af1158015613a08573d6000803e3d6000fd5b50505050613a1b8385611d6b91906152f4565b60408051858152602081018590529081018290527ffde591d4268ec544cdd14ce6872b792705c3a22041dda226551134062d3e05e89060600160405180910390a150505050507f00000000000000000000000000000000000000000000000000000000000000006001600160a01b031663c3d0cbfb6040518163ffffffff1660e01b8152600401602060405180830381865afa158015613abf573d6000803e3d6000fd5b505050506040513d601f19601f82011682018060405250810190613ae3919061523f565b6001600160a01b031663565f36526040518163ffffffff1660e01b8152600401600060405180830381600087803b158015613b1d57600080fd5b505af1158015613b31573d6000803e3d6000fd5b50505050506129e960018055565b6000610d62600a83613c9d565b6000610d62602283613c9d565b6000610d62826130b26001613b96565b6001600160a01b038216613b92578060405163eac0d38960e01b815260040161115a919061472a565b5050565b6040516357e4548560e01b815260009073__$01f473357be68eab904149e2679f02fe97$__906357e454859061237a90601090600c9087906004016154e3565b60606000610df6836144f6565b613beb611ea5565b15613c0957604051631309a56360e01b815260040160405180910390fd5b565b8151600003613b925780604051634389d5ab60e01b815260040161115a919061472a565b604051632474521560e21b81526000906001600160a01b037f000000000000000000000000000000000000000000000000000000000000000016906391d1485490613c809086908690600401615228565b602060405180830381865afa158015610dd2573d6000803e3d6000fd5b6001600160a01b03811660009081526001830160205260408120541515610df6565b6000610df6836001600160a01b038416614552565b6000610df6613ce284613017565b836127fe610f45565b600080613cf98686866145a1565b90506001836002811115613d0f57613d0f614ad6565b148015613d2c575060008480613d2757613d27615508565b868809115b156118cd57613d3c6001826152f4565b9695505050505050565b600260015403613d6957604051633ee5aeb560e01b815260040160405180910390fd5b6002600155565b60405163fe5c822d60e01b8152601260048201526002602482015260009073__$669f91a11f10a24610ade7c17c5bed3751$__9063fe5c822d9060440160006040518083038186803b158015613dc557600080fd5b505af4158015613dd9573d6000803e3d6000fd5b505050506000613de7610f45565b9050613df4858285614650565b915073__$669f91a11f10a24610ade7c17c5bed3751$__63c0b1cd5560126002613e1e8587615307565b898988613e40306001600160a01b031660009081526002602052604090205490565b6040516001600160e01b031960e08a901b1681526004810197909752602487019590955260448601939093526064850191909152608484015260a483015260c482015260e401602060405180830381865af4158015613ea3573d6000803e3d6000fd5b505050506040513d601f19601f820116820180604052508101906118cd9190614f7e565b6026546001600160a01b0316634244cc9082613f037f00000000000000000000000000000000000000000000000000000000000000008661551e565b613f0d9190615535565b6040518263ffffffff1660e01b8152600401613f2b91815260200190565b600060405180830381600087803b158015613f4557600080fd5b505af11580156122cb573d6000803e3d6000fd5b600080613f64610f45565b905080600003613f7957506000928392509050565b80612710613f8685612a47565b613f90919061551e565b613f9a9190615535565b9150915091565b60007f00000000000000000000000000000000000000000000000000000000000000006001600160a01b031663c3d0cbfb6040518163ffffffff1660e01b8152600401602060405180830381865afa158015614001573d6000803e3d6000fd5b505050506040513d601f19601f82011682018060405250810190614025919061523f565b6001600160a01b031663f403e7846040518163ffffffff1660e01b8152600401602060405180830381865afa158015614062573d6000803e3d6000fd5b505050506040513d601f19601f820116820180604052508101906140869190614f7e565b1115613c09576040516318b29b3d60e31b815260040160405180910390fd5b81600003613b925780604051634389d5ab60e01b815260040161115a919061472a565b604051637d127d0360e01b81526001600160a01b037f000000000000000000000000000000000000000000000000000000000000000081166004830152601e602483015260026044830152601260648301526084820185905260a48201849052821660c482015273__$e59ba208770f0bb7170124c90a265d49b2$__90637d127d039060e40161206b565b600061415d610f45565b905080158061416a575082155b156141755750505050565b60008161271061418485612a47565b61418e919061551e565b6141989190615535565b9050848110156113c65760405163caf853f960e01b8152600481018690526024810182905260440161115a565b6040516301abe88960e21b815260048101859052602481018490526001600160a01b03808416604483015280831660648301527f0000000000000000000000000000000000000000000000000000000000000000166084820152601e60a4820152600260c482015273__$01f473357be68eab904149e2679f02fe97$__906306afa2249060e40160006040518083038186803b15801561426457600080fd5b505af4158015614278573d6000803e3d6000fd5b5050505050505050565b60008115610d6257614292611ea5565b6142a45761429f8361232d565b610df6565b50600092915050565b6142fe60405180610120016040528060001515815260200160008152602001600081526020016000815260200160008152602001600081526020016000815260200160008152602001600081525090565b6040840151158015614312575060a0840151155b1561433057604051635435b28960e11b815260040160405180910390fd5b83606001516001600160a01b031684600001516001600160a01b03160361437b576060840151604051630936a72560e31b81526001600160a01b03909116600482015260240161115a565b6026546040516302e7694760e21b81526000916001600160a01b031690630b9da51c906143ac9088906004016154d5565b610160604051808303816000875af11580156143cc573d6000803e3d6000fd5b505050506040513d601f19601f820116820180604052508101906143f09190615557565b6060808701516001600160a01b039081166000908152600c602090815260408083208b5185168452928190206026548251608081018452601e548152601f54948101949094527f0000000000000000000000000000000000000000000000000000000000000000861684840152600d5460ff16151596840196909652905163d3f34d2960e01b815295965073__$01f473357be68eab904149e2679f02fe97$__9563d3f34d29956144b49592938e938e938b9390911691908e908e9060040161561a565b61012060405180830381865af41580156144d2573d6000803e3d6000fd5b505050506040513d601f19601f82011682018060405250810190613d3c919061525c565b60608160000180548060200260200160405190810160405280929190818152602001828054801561454657602002820191906000526020600020905b815481526020019060010190808311614532575b50505050509050919050565b600081815260018301602052604081205461459957508154600181810184556000848152602080822090930184905584548482528286019093526040902091909155610d62565b506000610d62565b60008080600019858709858702925082811083820303915050806000036145db578382816145d1576145d1615508565b0492505050610df6565b8084116145e757600080fd5b60008486880960026001871981018816978890046003810283188082028403028082028403028082028403028082028403028082028403029081029092039091026000889003889004909101858311909403939093029303949094049190911702949350505050565b604051632a36b43960e21b815260048101849052602481018390526014604482015260026064820152811515608482015260009073__$669f91a11f10a24610ade7c17c5bed3751$__9063a8dad0e49060a401602060405180830381865af41580156146c0573d6000803e3d6000fd5b505050506040513d601f19601f820116820180604052508101906110b99190614f7e565b6000815180845260005b8181101561470a576020818501810151868301820152016146ee565b506000602082860101526020601f19601f83011685010191505092915050565b602081526000610df660208301846146e4565b60006020828403121561474f57600080fd5b5035919050565b6001600160a01b0381168114611e9657600080fd5b6000806040838503121561477e57600080fd5b823561478981614756565b946020939093013593505050565b6020808252825182820181905260009190848201906040850190845b818110156147d85783516001600160a01b0316835292840192918401916001016147b3565b50909695505050505050565b6000602082840312156147f657600080fd5b8135610df681614756565b60008060006060848603121561481657600080fd5b833561482181614756565b9250602084013561483181614756565b929592945050506040919091013590565b634e487b7160e01b600052604160045260246000fd5b60405160c081016001600160401b038111828210171561487a5761487a614842565b60405290565b60405161012081016001600160401b038111828210171561487a5761487a614842565b60405161016081016001600160401b038111828210171561487a5761487a614842565b604051601f8201601f191681016001600160401b03811182821017156148ee576148ee614842565b604052919050565b60006001600160401b0383111561490f5761490f614842565b614922601f8401601f19166020016148c6565b905082815283838301111561493657600080fd5b828260208301376000602084830101529392505050565b600082601f83011261495e57600080fd5b610df6838335602085016148f6565b6000806000806080858703121561498357600080fd5b843561498e81614756565b935060208501356001600160401b03808211156149aa57600080fd5b6149b68883890161494d565b945060408701359150808211156149cc57600080fd5b6149d88883890161494d565b935060608701359150808211156149ee57600080fd5b508501601f81018713614a0057600080fd5b614a0f878235602084016148f6565b91505092959194509250565b60038110611e9657600080fd5b600060208284031215614a3a57600080fd5b8135610df681614a1b565b81516001600160a01b0316815261014081016020830151602083015260408301516040830152606083015160608301526080830151614a8f60808401826001600160a01b03169052565b5060a083015160a083015260c083015160c083015260e083015160e083015261010080840151818401525061012080840151614ace8285018215159052565b505092915050565b634e487b7160e01b600052602160045260246000fd5b60038110611e9657634e487b7160e01b600052602160045260246000fd5b60208101614b1783614aec565b91905290565b60008060008060808587031215614b3357600080fd5b8435935060208501359250604085013591506060850135614b5381614a1b565b939692955090935050565b60008083601f840112614b7057600080fd5b5081356001600160401b03811115614b8757600080fd5b6020830191508360208260051b8501011115614ba257600080fd5b9250929050565b60008060208385031215614bbc57600080fd5b82356001600160401b03811115614bd257600080fd5b614bde85828601614b5e565b90969095509350505050565b60008060408385031215614bfd57600080fd5b823591506020830135614c0f81614756565b809150509250929050565b8015158114611e9657600080fd5b600060208284031215614c3a57600080fd5b8135610df681614c1a565b60008060408385031215614c5857600080fd5b82356001600160401b0380821115614c6f57600080fd5b614c7b8683870161494d565b93506020850135915080821115614c9157600080fd5b50614c9e8582860161494d565b9150509250929050565b600080600060608486031215614cbd57600080fd5b833592506020840135614ccf81614756565b91506040840135614cdf81614756565b809150509250925092565b60008060008060008060608789031215614d0357600080fd5b86356001600160401b0380821115614d1a57600080fd5b614d268a838b01614b5e565b90985096506020890135915080821115614d3f57600080fd5b614d4b8a838b01614b5e565b90965094506040890135915080821115614d6457600080fd5b50614d7189828a01614b5e565b979a9699509497509295939492505050565b600080600080600080600060e0888a031215614d9e57600080fd5b8735614da981614756565b96506020880135614db981614756565b95506040880135945060608801359350608088013560ff81168114614ddd57600080fd5b9699959850939692959460a0840135945060c09093013592915050565b600060208284031215614e0c57600080fd5b813565ffffffffffff81168114610df657600080fd5b60008083601f840112614e3457600080fd5b5081356001600160401b03811115614e4b57600080fd5b602083019150836020828501011115614ba257600080fd5b600080600080848603610100811215614e7b57600080fd5b8535614e8681614756565b945060c0601f1982011215614e9a57600080fd5b50614ea3614858565b6020860135614eb181614756565b81526040860135614ec181614756565b6020820152606086013560408201526080860135614ede81614756565b606082015260a0860135614ef181614756565b608082015260c086013560a0820152925060e08501356001600160401b03811115614f1b57600080fd5b614f2787828801614e22565b95989497509550505050565b60008060408385031215614f4657600080fd5b8235614f5181614756565b91506020830135614c0f81614756565b82815260408101614f7183614aec565b8260208301529392505050565b600060208284031215614f9057600080fd5b5051919050565b600181811c90821680614fab57607f821691505b602082108103612bd257634e487b7160e01b600052602260045260246000fd5b8051614fd681614c1a565b919050565b600060208284031215614fed57600080fd5b8151610df681614c1a565b871515815286602082015285604082015260e06060820152600061501f60e08301876146e4565b60808301959095525060a081019290925260c090910152949350505050565b6000806040838503121561505157600080fd5b505080516020909101519092909150565b8051614fd681614756565b6000602080838503121561508057600080fd5b82516001600160401b038082111561509757600080fd5b818501915085601f8301126150ab57600080fd5b8151818111156150bd576150bd614842565b8060051b91506150ce8483016148c6565b81815291830184019184810190888411156150e857600080fd5b938501935b83851015615112578451925061510283614756565b82825293850193908501906150ed565b98975050505050505050565b601f82111561516457600081815260208120601f850160051c810160208610156151455750805b601f850160051c820191505b818110156122cb57828155600101615151565b505050565b81516001600160401b0381111561518257615182614842565b615196816151908454614f97565b8461511e565b602080601f8311600181146151cb57600084156151b35750858301515b600019600386901b1c1916600185901b1785556122cb565b600085815260208120601f198616915b828110156151fa578886015182559484019460019091019084016151db565b50858210156152185787850151600019600388901b60f8161c191681555b5050505050600190811b01905550565b9182526001600160a01b0316602082015260400190565b60006020828403121561525157600080fd5b8151610df681614756565b6000610120828403121561526f57600080fd5b615277614880565b61528083614fcb565b81526020830151602082015260408301516040820152606083015160608201526080830151608082015260a083015160a082015260c083015160c082015260e083015160e08201526101008084015181830152508091505092915050565b634e487b7160e01b600052601160045260246000fd5b80820180821115610d6257610d626152de565b81810381811115610d6257610d626152de565b8183526000602080850194508260005b8581101561535857813561533d81614756565b6001600160a01b03168752958201959082019060010161532a565b509495945050505050565b85815284602082015260806040820152600061538360808301858761531a565b905060018060a01b03831660608301529695505050505050565b848152836020820152606060408201526000613d3c60608301848661531a565b6040815260006153d060408301856146e4565b82810360208401526118cd81856146e4565b6000806000606084860312156153f757600080fd5b8351925060208401519150604084015190509250925092565b634e487b7160e01b600052600160045260246000fd5b60608152600061543a60608301888a61531a565b82810360208401528581526001600160fb1b0386111561545957600080fd5b8560051b80886020840137018281036020908101604085015261547f908201858761531a565b9998505050505050505050565b80516001600160a01b039081168352602080830151821690840152604080830151908401526060808301518216908401526080808301519091169083015260a090810151910152565b60c08101610d62828461548c565b83815260208101839052606081016154fa83614aec565b826040830152949350505050565b634e487b7160e01b600052601260045260246000fd5b8082028115828204841417610d6257610d626152de565b60008261555257634e487b7160e01b600052601260045260246000fd5b500490565b6000610160828403121561556a57600080fd5b6155726148a3565b61557b83615062565b81526020830151602082015260408301516040820152606083015160608201526080830151608082015260a083015160a082015260c083015160c082015260e083015160e08201526101008084015181830152506101208084015181830152506101408084015181830152508091505092915050565b81835281816020850137506000828201602090810191909152601f909101601f19169091010190565b898152602081018990526001600160a01b03881660408201526000610340615645606084018a61548c565b61012061565d8185018a516001600160a01b03169052565b60208901516101408581019190915260408a015161016086015260608a015161018086015260808a01516101a086015260a08a01516101c086015260c08a01516101e086015260e08a01516102008601526101008a0151610220860152908901516102408501528801516102608401526001600160a01b03871661028084015285516102a084015260208601516102c084015260408601516001600160a01b03166102e0840152606086015115156103008401528061032084015261572581840185876155f1565b9c9b50505050505050505050505056fea26469706673582212209e357559fc6882407fc3f3609f4c81aa40f9d5f3317e32cdb2fae02f7a6286bc64736f6c63430008110033","linkReferences":{"src/strategy/WithdrawalQueue.sol":{"WithdrawalQueue":[{"start":6788,"length":20},{"start":9623,"length":20},{"start":14518,"length":20}]},"src/vault/libs/Autopool4626.sol":{"Autopool4626":[{"start":6114,"length":20},{"start":6919,"length":20},{"start":12030,"length":20},{"start":13819,"length":20},{"start":15182,"length":20},{"start":15293,"length":20},{"start":19667,"length":20}]},"src/vault/libs/AutopoolDebt.sol":{"AutopoolDebt":[{"start":6563,"length":20},{"start":9377,"length":20},{"start":10224,"length":20},{"start":14291,"length":20},{"start":14802,"length":20},{"start":15840,"length":20},{"start":18250,"length":20},{"start":19921,"length":20},{"start":20511,"length":20}]},"src/vault/libs/AutopoolDestinations.sol":{"AutopoolDestinations":[{"start":11195,"length":20},{"start":12375,"length":20},{"start":17525,"length":20},{"start":17661,"length":20}]},"src/vault/libs/AutopoolFees.sol":{"AutopoolFees":[{"start":7683,"length":20},{"start":7892,"length":20},{"start":11811,"length":20},{"start":12962,"length":20},{"start":14083,"length":20},{"start":15660,"length":20},{"start":16230,"length":20},{"start":16513,"length":20},{"start":16768,"length":20},{"start":18738,"length":20},{"start":18842,"length":20},{"start":21032,"length":20}]},"src/vault/libs/AutopoolToken.sol":{"AutopoolToken":[{"start":6457,"length":20},{"start":7165,"length":20},{"start":13767,"length":20},{"start":16142,"length":20}]}}},"methodIdentifiers":{"DEAD_ADDRESS()":"4e6fd6c4","DOMAIN_SEPARATOR()":"3644e515","FEE_DIVISOR()":"9e93ad8e","ONE()":"c2ee3a08","WETH_INIT_DEPOSIT()":"fc468021","accessController()":"bc43cbaf","addDestinations(address[])":"66c2072e","allowance(address,address)":"dd62ed3e","approve(address,uint256)":"095ea7b3","asset()":"38d52e0f","autoPoolStrategy()":"2ec746bf","balanceOf(address)":"70a08231","balanceOfActual(address)":"d54ffc0b","convertToAssets(uint256)":"07a2d13a","convertToAssets(uint256,uint256,uint256,uint8)":"48b80c5d","convertToShares(uint256)":"c6e6f592","convertToShares(uint256,uint256,uint256,uint8)":"77f748d0","decimals()":"313ce567","deposit(uint256,address)":"6e553f65","factory()":"c45a0155","flashRebalance(address,(address,address,uint256,address,address,uint256),bytes)":"dc47c23a","getAssetBreakdown()":"6fcb5f3d","getDebtReportingQueue()":"b639a0c1","getDestinationInfo(address)":"19004142","getDestinations()":"5ba536bc","getFeeSettings()":"2b38400e","getPastRewarders()":"19e65034","getProfitUnlockSettings()":"e50d8b26","getRemovalQueue()":"8063e2b6","getSystemRegistry()":"f12baf5c","getWithdrawalQueue()":"0e73ecef","initialize(address,string,string,bytes)":"267eb9ed","isDestinationQueuedForRemoval(address)":"e225df1b","isDestinationRegistered(address)":"ba689a12","isPastRewarder(address)":"e9f45bec","isShutdown()":"bf86d690","maxDeposit(address)":"402d267d","maxMint(address)":"c63d75b6","maxRedeem(address)":"d905777e","maxWithdraw(address)":"ce96cb77","mint(uint256,address)":"94bf804d","name()":"06fdde03","nonces(address)":"7ecebe00","oldestDebtReporting()":"53589b74","pause()":"8456cb59","paused()":"5c975abb","permit(address,address,uint256,uint256,uint8,bytes32,bytes32)":"d505accf","previewDeposit(uint256)":"ef8b30f7","previewMint(uint256)":"b3d7f6b9","previewRedeem(uint256)":"4cdad506","previewWithdraw(uint256)":"0a28a477","recover(address[],uint256[],address[])":"bef893e8","redeem(uint256,address,address)":"ba087652","removeDestinations(address[])":"804a4219","rewarder()":"dcc3e06e","setFeeSink(address)":"da62e064","setPeriodicFeeBps(uint256)":"c7575dac","setPeriodicFeeSink(address)":"ae35f432","setProfitUnlockPeriod(uint48)":"d9ac22d1","setRebalanceFeeHighWaterMarkEnabled(bool)":"6f6f3821","setRewarder(address)":"3a6462e4","setStreamingFeeBps(uint256)":"92804c6c","setSymbolAndDescAfterShutdown(string,string)":"9a0dbc02","shutdown(uint8)":"295b001f","shutdownStatus()":"2e4c9697","symbol()":"95d89b41","totalAssets()":"01e1d114","totalAssets(uint8)":"a90a227a","totalSupply()":"18160ddd","transfer(address,uint256)":"a9059cbb","transferFrom(address,address,uint256)":"23b872dd","unlockedShares()":"d9a0e97a","unpause()":"3f4ba83a","updateDebtReporting(uint256)":"544407e2","vaultType()":"4ac032be","withdraw(uint256,address,address)":"b460af94"},"id":473}