{"abi":[{"type":"function","name":"FEE_DIVISOR","inputs":[],"outputs":[{"name":"","type":"uint256","internalType":"uint256"}],"stateMutability":"view"},{"type":"function","name":"MAX_BPS_PROFIT","inputs":[],"outputs":[{"name":"","type":"uint256","internalType":"uint256"}],"stateMutability":"view"},{"type":"function","name":"MAX_PERIODIC_FEE_BPS","inputs":[],"outputs":[{"name":"","type":"uint256","internalType":"uint256"}],"stateMutability":"view"},{"type":"function","name":"SECONDS_IN_YEAR","inputs":[],"outputs":[{"name":"","type":"uint256","internalType":"uint256"}],"stateMutability":"view"},{"type":"event","name":"Deposit","inputs":[{"name":"sender","type":"address","indexed":true,"internalType":"address"},{"name":"owner","type":"address","indexed":true,"internalType":"address"},{"name":"assets","type":"uint256","indexed":false,"internalType":"uint256"},{"name":"shares","type":"uint256","indexed":false,"internalType":"uint256"}],"anonymous":false},{"type":"event","name":"FeeCollected","inputs":[{"name":"fees","type":"uint256","indexed":false,"internalType":"uint256"},{"name":"feeSink","type":"address","indexed":false,"internalType":"address"},{"name":"mintedShares","type":"uint256","indexed":false,"internalType":"uint256"},{"name":"profit","type":"uint256","indexed":false,"internalType":"uint256"},{"name":"totalAssets","type":"uint256","indexed":false,"internalType":"uint256"}],"anonymous":false},{"type":"event","name":"FeeSinkSet","inputs":[{"name":"newFeeSink","type":"address","indexed":false,"internalType":"address"}],"anonymous":false},{"type":"event","name":"LastPeriodicFeeTakeSet","inputs":[{"name":"lastPeriodicFeeTake","type":"uint256","indexed":false,"internalType":"uint256"}],"anonymous":false},{"type":"event","name":"NewNavShareFeeMark","inputs":[{"name":"navPerShare","type":"uint256","indexed":false,"internalType":"uint256"},{"name":"timestamp","type":"uint256","indexed":false,"internalType":"uint256"}],"anonymous":false},{"type":"event","name":"NewProfitUnlockTime","inputs":[{"name":"timeSeconds","type":"uint48","indexed":false,"internalType":"uint48"}],"anonymous":false},{"type":"event","name":"NewTotalAssetsHighWatermark","inputs":[{"name":"assets","type":"uint256","indexed":false,"internalType":"uint256"},{"name":"timestamp","type":"uint256","indexed":false,"internalType":"uint256"}],"anonymous":false},{"type":"event","name":"PeriodicFeeCollected","inputs":[{"name":"fees","type":"uint256","indexed":false,"internalType":"uint256"},{"name":"feeSink","type":"address","indexed":false,"internalType":"address"},{"name":"mintedShares","type":"uint256","indexed":false,"internalType":"uint256"}],"anonymous":false},{"type":"event","name":"PeriodicFeeSet","inputs":[{"name":"newFee","type":"uint256","indexed":false,"internalType":"uint256"}],"anonymous":false},{"type":"event","name":"PeriodicFeeSinkSet","inputs":[{"name":"newPeriodicFeeSink","type":"address","indexed":false,"internalType":"address"}],"anonymous":false},{"type":"event","name":"RebalanceFeeHighWaterMarkEnabledSet","inputs":[{"name":"enabled","type":"bool","indexed":false,"internalType":"bool"}],"anonymous":false},{"type":"event","name":"StreamingFeeSet","inputs":[{"name":"newFee","type":"uint256","indexed":false,"internalType":"uint256"}],"anonymous":false},{"type":"error","name":"AlreadySet","inputs":[]},{"type":"error","name":"DebtReportingStale","inputs":[]},{"type":"error","name":"InvalidFee","inputs":[{"name":"newFee","type":"uint256","internalType":"uint256"}]}],"bytecode":{"object":"0x6118ed61003a600b82828239805160001a60731461002d57634e487b7160e01b600052600060045260246000fd5b30600052607381538281f3fe73000000000000000000000000000000000000000030146080604052600436106100ff5760003560e01c8063a6b8b9b9116100a1578063dbe5b32a11610070578063dbe5b32a1461023f578063e6f63c311461025f578063f2d0157f14610268578063fe5c822d1461027357600080fd5b8063a6b8b9b9146101bf578063a8dad0e4146101df578063c0b1cd55146101ff578063c397d6b51461021f57600080fd5b8063567f0302116100dd578063567f03021461016b5780635dcc93911461018b5780636ac5b383146101965780639e93ad8e146101b657600080fd5b80630dc78a771461010457806325ae9ed11461012657806325f371531461014b575b600080fd5b81801561011057600080fd5b5061012461011f3660046114cd565b610293565b005b6101396101343660046114ff565b610414565b60405190815260200160405180910390f35b81801561015757600080fd5b50610124610166366004611521565b610491565b81801561017757600080fd5b5061012461018636600461157a565b6105af565b6101396301e1338081565b8180156101a257600080fd5b506101246101b13660046115a6565b610627565b61013961271081565b8180156101cb57600080fd5b506101246101da3660046115bf565b61066e565b8180156101eb57600080fd5b506101396101fa3660046115fb565b6106cf565b81801561020b57600080fd5b5061013961021a366004611644565b6109a0565b81801561022b57600080fd5b5061012461023a3660046114cd565b610be1565b81801561024b57600080fd5b5061012461025a3660046115bf565b610c52565b6101396103e881565b610139633b9aca0081565b81801561027f57600080fd5b5061012461028e3660046114ff565b610cab565b61271083106102bd5760405163179c637760e11b8152600481018490526024015b60405180910390fd5b6102c78282610d70565b60003090508385600601819055506000816001600160a01b03166318160ddd6040518163ffffffff1660e01b8152600401602060405180830381865afa158015610315573d6000803e3d6000fd5b505050506040513d601f19601f820116820180604052508101906103399190611690565b905080156103d9576000826001600160a01b03166301e1d1146040518163ffffffff1660e01b8152600401602060405180830381865afa158015610381573d6000803e3d6000fd5b505050506040513d601f19601f820116820180604052508101906103a59190611690565b905080156103ce57816103ba612710836116bf565b6103c491906116ec565b60078801556103d7565b61271060078801555b505b6040518581527fa5a1883d6ed0251432b77439e74f9f28d7e8de68179fd83ad64088d0fbf5c4e69060200160405180910390a1505050505050565b8154600090600160301b900465ffffffffffff1642811115610471578354633b9aca009061045190600160601b900465ffffffffffff1642611700565b856001015461046091906116bf565b61046a91906116ec565b915061048a565b801561048a573060009081526020849052604090205491505b5092915050565b825465ffffffffffff191665ffffffffffff8216908117845560000361056f5730600090815260208390526040902054801561055357835465ffffffffffff60601b1916600160601b4265ffffffffffff16021784556040516322fb941560e11b815273__$3d92f1d3bc6bfb356016331e2a35621c53$__906345f7282a9061052290869030908690600401611713565b60006040518083038186803b15801561053a57600080fd5b505af415801561054e573d6000803e3d6000fd5b505050505b5082546bffffffffffff00000000000019168355600060018401555b60405165ffffffffffff821681527f7bcaed1fa1a86488b0377927c7ff08ecd0fb989f4dfd1b423508aa6e2fe937ac9060200160405180910390a1505050565b600982015481151560ff9091161515036105dc5760405163a741a04560e01b815260040160405180910390fd5b60098201805460ff19168215159081179091556040519081527f382ebb619d17502f814820a053c45e37e44f30a9ac712365abcef37514a650f0906020015b60405180910390a15050565b42600382018190556127106007830155600882018190556040518181527f47958863cd1b5cac74ca9982b61a60e67c3bc853ca3738349b17f83c2405289b9060200161061b565b6040516001600160a01b03821681527f8734efd4cf8ef698241e9b7e91438b4d9ec78cc03dfd9bd7c69ff334116358599060200160405180910390a160049190910180546001600160a01b0319166001600160a01b03909216919091179055565b6000846000036106e157506000610997565b811561081857600484015460058501546001600160a01b0390911690801580159061071457506001600160a01b03821615155b156107da57600086600301544261072b9190611700565b9050600061074c61073e612710856116bf565b83906301e133806001610dac565b9050600061075c85838c8e610e0b565b9050610768818b611732565b60405163c67e515160e01b8152909a5073__$3d92f1d3bc6bfb356016331e2a35621c53$__9063c67e5151906107a6908b9089908690600401611713565b60006040518083038186803b1580156107be57600080fd5b505af41580156107d2573d6000803e3d6000fd5b505050505050505b42600387018190556040519081527f47958863cd1b5cac74ca9982b61a60e67c3bc853ca3738349b17f83c2405289b9060200160405180910390a150505b600085610827612710896116bf565b61083191906116ec565b905060006108418642848b610ecc565b9050808211156108d8576000876108588385611700565b61086291906116bf565b905060006108878860060154600261271061087d9190611829565b8491906001610dac565b905080156108d5576108b987828a60060154858d8f8e60000160009054906101000a90046001600160a01b031661115b565b9850886108c86127108c6116bf565b6108d291906116ec565b93505b50505b80821015806108ec5750600986015460ff16155b1561093b576007860182905542600887018190556040805184815260208101929092527f54c6541604fd73f621d678966c0c0a2715f9a29d8aa09c74e0062fcf2aab47cc910160405180910390a15b878660010154101561099157600186018890554260028701819055604080518a815260208101929092527fc9de6c198a49cffb8cbf85ef1767a1c6e342be97f0b87397734248c82fb2dab1910160405180910390a15b86925050505b95945050505050565b865460009065ffffffffffff168015806109b8575084155b156109c65783915050610bd6565b6000808581886109d68c84611700565b6109e0908c6116bf565b6109ea91906116ec565b905080821115610a35578615610a35576000610a068284611700565b9050808810610a2357925082610a1c8184611700565b9250610a33565b879350610a308484611700565b92505b505b81811115610a5657610a478282611700565b9350610a538483611732565b91505b600084610a63858a611700565b610a6d9190611732565b905087811115610b06576000610a838983611700565b90508d73__$3d92f1d3bc6bfb356016331e2a35621c53$__63c67e5151909130846040518463ffffffff1660e01b8152600401610ac293929190611713565b60006040518083038186803b158015610ada57600080fd5b505af4158015610aee573d6000803e3d6000fd5b50505050808a610afe9190611732565b995050610b99565b87811015610b99576000610b1a828a611700565b90508d73__$3d92f1d3bc6bfb356016331e2a35621c53$__6345f7282a909130846040518463ffffffff1660e01b8152600401610b5993929190611713565b60006040518083038186803b158015610b7157600080fd5b505af4158015610b85573d6000803e3d6000fd5b50505050808a610b959190611700565b9950505b80600003610ba957600060018f01555b600081118015610bb95750600086115b15610bcc57610bcc8e87868b89866112a8565b8896505050505050505b979650505050505050565b6103e8831115610c075760405163179c637760e11b8152600481018490526024016102b4565b610c118282610d70565b6040518381527f27496b61db7c8f1c73a471fe8908a718000c413e4401dcf0ec205b30ea02d3cb9060200160405180910390a1505061ffff16600590910155565b6040516001600160a01b03821681527f93f45e69cdabde5c8296469e04ee6765b806aa9c3ef27883e43d1c3d227c4f229060200160405180910390a181546001600160a01b0319166001600160a01b0391909116179055565b6000610cb78383610414565b905080600003610cc657505050565b825442600160301b90910465ffffffffffff161115610d0057825465ffffffffffff60601b1916600160601b4265ffffffffffff16021783555b6040516322fb941560e11b815273__$3d92f1d3bc6bfb356016331e2a35621c53$__906345f7282a90610d3b90859030908690600401611713565b60006040518083038186803b158015610d5357600080fd5b505af4158015610d67573d6000803e3d6000fd5b50505050505050565b600081118015610d8a5750610d8761025842611700565b82105b15610da85760405163e826861f60e01b815260040160405180910390fd5b5050565b600080610dba868686611395565b90506001836002811115610dd057610dd0611838565b148015610ded575060008480610de857610de86116d6565b868809115b15610e0057610dfd600182611732565b90505b90505b949350505050565b6000610e198483848661144a565b90506000610e3e61271080610e2e86896116bf565b610e3891906116ec565b90611493565b6040805160008152602081018590529192506001600160a01b0388169130917fdcbc1c05240f31ff3ad067ef1ee35ce4997762752e3a095284754544f4c709d7910160405180910390a37f57541f28ce268adbe5fa488e716321b8a31a74aa5461c983ad6293f322ebb3ea818784604051610ebb93929190611713565b60405180910390a150949350505050565b6007840154600090808203610ee5576000915050610e03565b600986015460ff16610ef8579050610e03565b60006018603c80896008015489610f0f9190611700565b610f1991906116ec565b610f2391906116ec565b610f2d91906116ec565b9050610258811115610f43578492505050610e03565b603c81118015610f5557506102588111155b15611151576000306001600160a01b031663313ce5676040518163ffffffff1660e01b8152600401602060405180830381865afa158015610f9a573d6000803e3d6000fd5b505050506040513d601f19601f82011682018060405250810190610fbe919061184e565b90506000610fcd82600a611829565b60018a01549091506000818810610fe45781610fe6565b875b90506000828911610ff75782610ff9565b885b9050600061100785836116bf565b85611014856103e76116bf565b61101e91906116bf565b61102891906116ec565b90506000611037600188611871565b61104290600a611829565b8361104d88876116bf565b61105791906116ec565b6110619088611700565b61106c9060636116bf565b61107691906116ec565b905060006110848284611732565b90506000611093603c8b611700565b905060005b6110a36019836116ec565b811015611107576103e87d90e40fbeea1d3a4abc8955e946fe31cdcf66f634e10000000000000000006110d7601986611829565b6110e191906116ec565b6110eb908e6116bf565b6110f591906116ec565b9b506111008161188a565b9050611098565b5060005b6111166019836118a3565b811015611146576103e861112a848e6116bf565b61113491906116ec565b9b5061113f8161188a565b905061110b565b505050505050505050505b5095945050505050565b60006001600160a01b038216611172575082610bd6565b60006111808787868861144a565b60405163c67e515160e01b815290915073__$3d92f1d3bc6bfb356016331e2a35621c53$__9063c67e5151906111be908c9087908690600401611713565b60006040518083038186803b1580156111d657600080fd5b505af41580156111ea573d6000803e3d6000fd5b5050505080856111fa9190611732565b6040805160008152602081018490529196506001600160a01b0385169130917fdcbc1c05240f31ff3ad067ef1ee35ce4997762752e3a095284754544f4c709d7910160405180910390a3604080518981526001600160a01b038516602082015290810182905260608101879052608081018590527f3552e4b795fabf338ac18811c7db8508569032709558e19c88df5499681d7b139060a00160405180910390a15092979650505050505050565b8554600090600160301b900465ffffffffffff16428111156112e5576112ce4282611700565b6112d88787611700565b6112e291906116bf565b91505b6000836112f289876116bf565b6112fc9085611732565b61130691906116ec565b90508060000361131c57600060018a015561133b565b8061132b633b9aca00866116bf565b61133591906116ec565b60018a01555b6113458142611732565b895471ffffffffffffffffffffffff0000000000001916600160301b65ffffffffffff9283160265ffffffffffff60601b191617600160601b429290921691909102179098555050505050505050565b60008080600019858709858702925082811083820303915050806000036113cf578382816113c5576113c56116d6565b0492505050611443565b8084116113db57600080fd5b600084868809851960019081018716968790049682860381900495909211909303600082900391909104909201919091029190911760038402600290811880860282030280860282030280860282030280860282030280860282030280860290910302029150505b9392505050565b60008061271061145a86886116bf565b61146491906116ec565b9050611489818481611478612710896116bf565b6114829190611700565b6001610dac565b9695505050505050565b600082156114c157816114a7600185611700565b6114b191906116ec565b6114bc906001611732565b6114c4565b60005b90505b92915050565b600080600080608085870312156114e357600080fd5b5050823594602084013594506040840135936060013592509050565b6000806040838503121561151257600080fd5b50508035926020909101359150565b60008060006060848603121561153657600080fd5b8335925060208401359150604084013565ffffffffffff8116811461155a57600080fd5b809150509250925092565b8035801515811461157557600080fd5b919050565b6000806040838503121561158d57600080fd5b8235915061159d60208401611565565b90509250929050565b6000602082840312156115b857600080fd5b5035919050565b600080604083850312156115d257600080fd5b8235915060208301356001600160a01b03811681146115f057600080fd5b809150509250929050565b600080600080600060a0868803121561161357600080fd5b8535945060208601359350604086013592506060860135915061163860808701611565565b90509295509295909350565b600080600080600080600060e0888a03121561165f57600080fd5b505085359760208701359750604087013596606081013596506080810135955060a0810135945060c0013592509050565b6000602082840312156116a257600080fd5b5051919050565b634e487b7160e01b600052601160045260246000fd5b80820281158282048414176114c7576114c76116a9565b634e487b7160e01b600052601260045260246000fd5b6000826116fb576116fb6116d6565b500490565b818103818111156114c7576114c76116a9565b9283526001600160a01b03919091166020830152604082015260600190565b808201808211156114c7576114c76116a9565b600181815b80851115611780578160001904821115611766576117666116a9565b8085161561177357918102915b93841c939080029061174a565b509250929050565b600082611797575060016114c7565b816117a4575060006114c7565b81600181146117ba57600281146117c4576117e0565b60019150506114c7565b60ff8411156117d5576117d56116a9565b50506001821b6114c7565b5060208310610133831016604e8410600b8410161715611803575081810a6114c7565b61180d8383611745565b8060001904821115611821576118216116a9565b029392505050565b60006114c460ff841683611788565b634e487b7160e01b600052602160045260246000fd5b60006020828403121561186057600080fd5b815160ff8116811461144357600080fd5b60ff82811682821603908111156114c7576114c76116a9565b60006001820161189c5761189c6116a9565b5060010190565b6000826118b2576118b26116d6565b50069056fea264697066735822122041b19cf8c91dc9bb0b2e944b6c3759a323a6b56a7ab1abb5ed84a8db7346ab6e64736f6c63430008110033","linkReferences":{"src/vault/libs/AutopoolToken.sol":{"AutopoolToken":[{"start":1328,"length":20},{"start":1972,"length":20},{"start":2754,"length":20},{"start":2905,"length":20},{"start":3401,"length":20},{"start":4556,"length":20}]}}},"methodIdentifiers":{"FEE_DIVISOR()":"9e93ad8e","MAX_BPS_PROFIT()":"f2d0157f","MAX_PERIODIC_FEE_BPS()":"e6f63c31","SECONDS_IN_YEAR()":"5dcc9391","burnUnlockedShares(IAutopool.ProfitUnlockSettings storage,AutopoolToken.TokenData storage)":"fe5c822d","calculateProfitLocking(IAutopool.ProfitUnlockSettings storage,AutopoolToken.TokenData storage,uint256,uint256,uint256,uint256,uint256)":"c0b1cd55","collectFees(uint256,uint256,IAutopool.AutopoolFeeSettings storage,AutopoolToken.TokenData storage,bool)":"a8dad0e4","initializeFeeSettings(IAutopool.AutopoolFeeSettings storage)":"6ac5b383","setFeeSink(IAutopool.AutopoolFeeSettings storage,address)":"dbe5b32a","setPeriodicFeeBps(IAutopool.AutopoolFeeSettings storage,uint256,uint256,uint256)":"c397d6b5","setPeriodicFeeSink(IAutopool.AutopoolFeeSettings storage,address)":"a6b8b9b9","setProfitUnlockPeriod(IAutopool.ProfitUnlockSettings storage,AutopoolToken.TokenData storage,uint48)":"25f37153","setRebalanceFeeHighWaterMarkEnabled(IAutopool.AutopoolFeeSettings storage,bool)":"567f0302","setStreamingFeeBps(IAutopool.AutopoolFeeSettings storage,uint256,uint256,uint256)":"0dc78a77","unlockedShares(IAutopool.ProfitUnlockSettings storage,AutopoolToken.TokenData storage)":"25ae9ed1"},"id":490}